:2000000075817F1201B9120066751100120146751100120146751224120166751124120188
:20002000467512C012016675129C1201667511241201467512C012016675112412014675E3
:2000400012C01201667511241201467512C01201667511241201467512C012016675129CAC
:2000600012016602002D12009922C0E0C0D012013412011075C800751000D2B343900ED277
:20008000B1C2B0D2B2E5B05403F8120187B403E7F510C2B2D0D0D0E0221200FEC291D290ED
:2000A000C2B27414120319D29112055212006A7512801201667511001201467511001201D6
:2000C00046751242120166751128120146751100120146751243120166751100120146751B
:2000E000110012014675124012016675112812014675110012014675124112016622C08FBE
:20010000758F04C0B275B2007591FFD0B2D08F22C08F758F04C0B275B20075B1FFD0B2D0CF
:200120008F22C08F758F04C0B275B20075C9FFD0B2D08F22C08F758F04C0B275B20075C9B0
:2001400000D0B2D08F22C0E0C0D0120110C2B312030A759069F5B0C2B2A8111201871200C9
:200160006AD0D0D0E022C0E0C0D0120110D2B312030A43906D8512B0C2B2A812120187124B
:20018000006AD0D0D0E022C0E0C0D0740D12058AE81205A6740A12058AD0D0D0E022C08FAC
:2001A000758F04C0B275B20175C8FF75C9FF75B20075C900D0B2D08F22C08F758F04C0B2F3
:2001C00075B20143A00F43A10F75B20053A1F0D0B2D08F22C08F758F04C0B275B20075B1EE
:2001E000FFD0B2D08F22C08F758F04C0B275B200D287D28375B203D283D28775B200438697
:200200000853867FD0B2D08F22C08F758F04C0B275B200D283D28743868012030AC287121A
:20022000030AC28312030AD0B2D08F22C08F758F04C0B275B200438680C28712030AD28354
:2002400012030AD28712030A53867FD0B2D08F22C0E0C0F0C08F758F04C0B275B20075F007
:200260000843868033928712030AD28312030AC283D5F0F053867F12030AD283A28712034A
:200280000AC283D0B2D08FD0F0D0E022C08F758F04C0B275B200C0F0C0D075F00853867FA7
:2002A00012030AD283A2873312030AC283D5F0F0438680C28712030AD28312030AC2835398
:2002C000867FD0D0D0F0D0B2D08F22C08F758F04C0B275B200C0F0C0D075F00853867F12AF
:2002E000030AD283A2873312030AC283D5F0F0438680D28712030AD28312030AC2835386D4
:200300007FD0D0D0F0D0B2D08F22C0E0C0D075E01AD5E0FDD0D0D0E022C0E0C0D0C0F075E3
:20032000F032120332D5F0FAD5E0F4D0F0D0D0D0E022C0E0C0D075E06412030AD5E0FAD033
:20034000D0D0E022C0E0C0D0C0F01201E675F0FD1204E874101204E1D5E0FA74301204A03E
:200360001204E174301204A01204E174301204A01204E174201204A01204E1742812048A67
:200380001204E1740F12048A1204E1740112048A1204E1740612048A1204E1D0F0D0D0D0FF
:2003A000E022C0E0C0D0B480005046B42000503CB40C07740112048A803AB40107740F12FA
:2003C000048A8030B40207740E12048A8026B40307740C12048A801CB40D07740212048A02
:2003E0008012B40A0F74C012048A8008120450800312048AD0D0D0E022C0E0C0D0540F2490
:2004000030B43A0040022407120450D0D0D0E022C0E0C0D0C41203F9C41203F9D0D0D0E055
:2004200022C0E0C0D0E583120410E582120410D0D0D0E022C0E0C0D0C083C082E49360074A
:200440001203A2A302043CD082D083D0D0D0E022C0E0C0D0120460C4120460D0D0D0E02297
:20046000C0E0C0D0C0F0120501D2F0C2F154F0030353F0C342F01204E8D2F11204E8C2F11B
:200480001204E8D0F0D0D0D0E022C0E0C0D01204A01204E1C41204A01204E1D0D0D0E0226C
:2004A000C0E0C0D0C0F0120501C2F0C2F154F0030353F0C342F01204E8D2F11204E8C2F1EB
:2004C0001204E8D0F0D0D0D0E022744012048A74009312045020E703A380F4748012048A76
:2004E0002212033212033222C0E0C0D01202097440120250E5F012025012022CD0D0D0E0FC
:2005000022C0E0C0D012020974411202501202CB12022CF5F0D0D0D0E022C0F0120501C253
:20052000F61204E8D0F022C0F0120501D2F61204E8D0F022C0F0120501C2F71204E8D0F036
:2005400022C0F0120501D2F71204E8D0F02208200800C0E0C08F758F04C0B2C0BF75BF00BC
:2005600075B2025390FD4390015391FE43910275B2005391FE43910275985075BE9B75BDAA
:2005800011D0BFD0B2D08FD0E022F5993099FDC29922C0E0C0D0540F12068212058A120552
:2005A000EBD0D0D0E022C0E0C0D0C0E0C4120592D0E0120592D0D0D0E022C0E0C0D0E5833E
:2005C0001205A6E5821205A6D0D0D0E022C0E0C0D0C082C083E493600912058A1205EBA3ED
:2005E00080F3D083D082D0D0D0E022C0E0C0D0109805D0D0D0E022E599B413F61098F380CC
:20060000FB3098FDC298E5992212060112067512068C400EC4F812060112067512068C4042
:200620000148227854120601547F120675B40D02F622B40813B85407740712058A80E618B3
:2006400090054E1205CD80DD12066740EBB87E0280E6F60880E478547954E6B4200508B8B4
:2006600080F822F70980F7B420004007B47F005002C322D322B47B005007B461004002947E
:200680002022B40A0040022407243022C394304010B40A00400A94074007B41000B34001FE
:2006A000C322E612068C221206A24009C4F9081206A2400149221206A7400AF583081206DA
:2006C000A74002F58222C08F758F0475D10075CAB075CE0A75CC8075D10675CC01D08F22EF
:2006E000C08F758F0475D10675CB2075D1000000E5CB20E0FB75D102E5CB85CAF0D08F224E
:20070000C08F758F0475D10675CB1075D1000000E5CB20E0FB75D102E5CB85CAF0D08F223D
:20072000C0E0C0D0C070C071C072C073C074C075C076C077C078C079C07AC07BC07C7570E6
:2007400000757100757200757300757400757500757600757700757800757900757A0075FB
:200760007B00757C20EB13FBEA13FAE913F9E813F8502CEC2574F574ED3575F575EE357611
:20078000F576EF3577F577E5703578F578E5713579F579E572357AF57AE573357BF57BC356
:2007A000EC33FCED33FDEE33FEEF33FFE57033F570E57133F571E57233F572E57333F57301
:2007C000D57CA2A874A975AA76AB77AC78AD79AE7AAF7BD07CD07BD07AD079D078D077D085
:2007E00076D075D074D073D072D071D070D0D0D0E022C0E0C0D0C070C071C072C073C07458
:20080000C075C076757000757100757200757300757400757500757610E913F9E813F850CD
:2008200016EA2572F572EB3573F573E5703574F574E5713575F575C3EA33FAEB33FBE570A6
:2008400033F570E57133F571D576CEA872A973AA74AB75D076D075D074D073D072D071D01F
:2008600070D0D0D0E022C0E0C0D0C070C071C072C073C074C075C076C077C078C079C07A1F
:20088000C07BC07C757000757100757200757300757400757500757600757700757800753B
:2008A0007900757A00757B00757C20E833F8E933F9EA33FAEB33FBE57033F570E57133F50C
:2008C00071E57233F572E57333F573C3E5709CF574E5719DF575E5729EF576E5739FF57786
:2008E000400C857470857571857672857773B3E57833F578E57933F579E57A33F57AE57BEC
:2009000033F57BD57CA5AC78AD79AE7AAF7BA870A971AA72AB73D07CD07BD07AD079D078C4
:20092000D077D076D075D074D073D072D071D070D0D0D0E022C0E0C0D0C070C071C072C0A6
:2009400073C074C075C076757000757100757200757300757400757500757610E833F8E921
:2009600033F9E57033F570E57133F571C3E5709AF572E5719BF5734006857270857371B334
:20098000E57433F574E57533F575D576CFAA74AB75A870A971D076D075D074D073D072D0BD
:2009A00071D070D0D0D0E022C0E0C0D0E82CF8E93DF9EA3EFAEB3FFB74003400FCD0D0D05E
:2009C000E022C0E0C0D0E82AF8E93BF974003400FAD0D0D0E022C0E0C0D0C3E89CF8E99DB5
:2009E000F9EA9EFAEB9FFB74009400FCD0D0D0E022C0E0C0D0C3E89AF8E99BF9740094008F
:200A0000FAD0D0D0E022C0E0C0D0C077C078C0797579057B007A0A120935E8C0E0EAF8EBFB
:200A2000F9D579EFD0E0FAD0E0C4F579D0E02579F9D0E0C4F579D0E02579F8D079D078D024
:200A400077D0D0D0E022C0D0C0F075F00A84C425F0D0F0D0D022C0F0C0E0C0D0E8540FC034
:200A6000E0E8C4540F75F00AA4D0F025F0C0E0E954F0C4C0E0E9540F75F064A4A9F0F8D054
:200A8000E075F00AA475F064A428F8E935F0F9D0E028F8740039F9D0D0D0E0D0F022C0D097
:200AA000C0F0C070F57053700F54F0C475F00AA42570D070D0F0D0D022C083C082C0D0C0D8
:200AC0008FC0B2C0BF758F0475BF0143B70843B70453B6F743B60490F000A3E5824583709A
:200AE000F943B602E5B620E1FB30E0F5E5B7540F44A075BB98F5B753B7FB43B702E5B72052
:1D0B0000E0FB53B7F743B610D0BFD0B2D08FD0D0D082D08322438F0122538FFE2225
:00000001FF
