:2000000002000375817F12004975128012019D75129C12019D751160120150751109120196
:200020005075122412019DD0E0D0D090009BE493B4AA03020045F5111201507512C01201B8
:200040009DA302002E0002004575B2001200CE12005322C0E0C0D07515FF75160F75128001
:2000600012019D75129C12019D7512B012019D751100120167D515F77515FFD516F1751249
:20008000B212019D75110012015075110012015075122412019DD0E0D0D0222121212121BA
:2000A00021AAC0E0C0D0C21075C900D2B3D2B0C2B1E5C8D2B1D2B3F81201B3F5105403B438
:2000C00003EDF81201B375C9FFD0D0D0E0221205887586FF75B1FFC2B2D2B0D2B1D280C278
:2000E00081120368D2811200A275128012019D751100120150751100120150751242120196
:200100009D75112812015075110012015075124312019D751160120150751109120150751E
:20012000124012019D75112812015075110012015075124112019D751100120150751100DC
:2001400012015075122412019D75129012019D22C0E0C0D01200A28511C8C2B300C2B000CF
:20016000D2B0D0D0D0E022C0E0C0D01200A2E5105404B404F68511C8C2B300C2B000D2B0E5
:20018000D0D0D0E022C0E0C0D01200A275C900C2B3C2B1000085C811D0D0D0E022C0E0C0B3
:2001A000D01200A28512C8D2B3C2B000D2B0D0D0D0E022C0E0C0D0740D1205C0E81205DC0E
:2001C000740A1205C0D0D0D0E02222C0E0C0D0D0D0D0E022C08F758F04C0B275B20175C866
:2001E000FF75C9FF75B20075C900D0B2D08F22C08F758F04C0B275B20143A00F43A10F7510
:20020000B20053A1F0D0B2D08F22C08F758F04C0B275B20075B1FFD0B2D08F22C08F758FDA
:2002200004C0B275B200D287D28375B203D283D28775B20043860853867FD0B2D08F22C088
:200240008F758F04C0B275B200D283D287438680120340C287120340C283120340D0B2D098
:200260008F22C08F758F04C0B275B200438680C287120340D283120340D2871203405386C5
:200280007FD0B2D08F22C0E0C0F0C08F758F04C0B275B20075F00843868033928712034045
:2002A000D283120340C283D5F0F053867F120340D283A287120340C283D0B2D08FD0F0D064
:2002C000E022C08F758F04C0B275B200C0F0C0D075F00853867F120340D283A2873312030C
:2002E00040C283D5F0F0438680C287120340D283120340C28353867FD0D0D0F0D0B2D08F55
:2003000022C08F758F04C0B275B200C0F0C0D075F00853867F120340D283A287331203406B
:20032000C283D5F0F0438680D287120340D283120340C28353867FD0D0D0F0D0B2D08F2222
:20034000C0E0C0D075E01AD5E0FDD0D0D0E022C0E0C0D0C0F075F032120368D5F0FAD5E072
:20036000F4D0F0D0D0D0E022C0E0C0D075E064120340D5E0FAD0D0D0E022C0E0C0D0C0F018
:2003800012021C75F0FD12051E7410120517D5E0FA74301204D612051774301204D61205D0
:2003A0001774301204D612051774201204D612051774281204C0120517740F1204C01205AA
:2003C0001774011204C012051774061204C0120517D0F0D0D0D0E022C0E0C0D0B480005029
:2003E00046B42000503CB40C0774011204C0803AB40107740F1204C08030B40207740E1275
:2004000004C08026B40307740C1204C0801CB40D0774021204C08012B40A0F74C01204C045
:20042000800812048680031204C0D0D0D0E022C0E0C0D0540F2430B43A0040022407120475
:2004400086D0D0D0E022C0E0C0D0C412042FC412042FD0D0D0E022C0E0C0D0E583120446FC
:20046000E582120446D0D0D0E022C0E0C0D0C083C082E49360071203D8A3020472D082D08A
:2004800083D0D0D0E022C0E0C0D0120496C4120496D0D0D0E022C0E0C0D0C0F0120537D2A9
:2004A000F0C2F154F0030353F0C342F012051ED2F112051EC2F112051ED0F0D0D0D0E022D0
:2004C000C0E0C0D01204D6120517C41204D6120517D0D0D0E022C0E0C0D0C0F0120537C292
:2004E000F0C2F154F0030353F0C342F012051ED2F112051EC2F112051ED0F0D0D0D0E02290
:2005000074401204C074009312048620E703A380F474801204C02212036812036822C0E0E5
:20052000C0D012023F7440120286E5F0120286120262D0D0D0E022C0E0C0D012023F7441FB
:20054000120286120301120262F5F0D0D0D0E022C0F0120537C2F612051ED0F022C0F0128F
:200560000537D2F612051ED0F022C0F0120537C2F712051ED0F022C0F0120537D2F71205B4
:200580001ED0F02208200800C0E0C08F758F04C0B2C0BF75BF0075B2025390FD43900153DF
:2005A00091FE43910275B2005391FE43910275985075BE9B75BD11D0BFD0B2D08FD0E02247
:2005C000F5993099FDC29922C0E0C0D0540F1206B81205C0120621D0D0D0E022C0E0C0D035
:2005E000C0E0C41205C8D0E01205C8D0D0D0E022C0E0C0D0E5831205DCE5821205DCD0D032
:20060000D0E022C0E0C0D0C082C083E49360091205C0120621A380F3D083D082D0D0D0E058
:2006200022C0E0C0D0109805D0D0D0E022E599B413F61098F380FB3098FDC298E599221227
:2006400006371206AB1206C2400EC4F81206371206AB1206C2400148227854120637547F31
:200660001206ABB40D02F622B40813B8540774071205C080E61890058412060380DD120681
:200680009D40EBB87E0280E6F60880E478547954E6B4200508B880F822F70980F7B4200095
:2006A0004007B47F005002C322D322B47B005007B461004002942022B40A00400224072492
:2006C0003022C394304010B40A00400A94074007B41000B34001C322E61206C2221206D898
:2006E0004009C4F9081206D8400149221206DD400AF583081206DD4002F58222C08F758F6E
:200700000475D10075CAB075CE0A75CC8075D10675CC01D08F22C08F758F0475D10675CBA0
:200720002075D1000000E5CB20E0FB75D102E5CB85CAF0D08F22C08F758F0475D10675CB0D
:200740001075D1000000E5CB20E0FB75D102E5CB85CAF0D08F22C0E0C0D0C070C071C0721D
:20076000C073C074C075C076C077C078C079C07AC07BC07C757000757100757200757300B4
:20078000757400757500757600757700757800757900757A00757B00757C20EB13FBEA13EE
:2007A000FAE913F9E813F8502CEC2574F574ED3575F575EE3576F576EF3577F577E5703557
:2007C00078F578E5713579F579E572357AF57AE573357BF57BC3EC33FCED33FDEE33FEEFCC
:2007E00033FFE57033F570E57133F571E57233F572E57333F573D57CA2A874A975AA76AB0F
:2008000077AC78AD79AE7AAF7BD07CD07BD07AD079D078D077D076D075D074D073D072D0E8
:2008200071D070D0D0D0E022C0E0C0D0C070C071C072C073C074C075C07675700075710035
:20084000757200757300757400757500757610E913F9E813F85016EA2572F572EB3573F53D
:2008600073E5703574F574E5713575F575C3EA33FAEB33FBE57033F570E57133F571D5761A
:20088000CEA872A973AA74AB75D076D075D074D073D072D071D070D0D0D0E022C0E0C0D09F
:2008A000C070C071C072C073C074C075C076C077C078C079C07AC07BC07C757000757100AF
:2008C000757200757300757400757500757600757700757800757900757A00757B00757CF4
:2008E00020E833F8E933F9EA33FAEB33FBE57033F570E57133F571E57233F572E57333F533
:2009000073C3E5709CF574E5719DF575E5729EF576E5739FF577400C85747085757185760C
:2009200072857773B3E57833F578E57933F579E57A33F57AE57B33F57BD57CA5AC78AD79E3
:20094000AE7AAF7BA870A971AA72AB73D07CD07BD07AD079D078D077D076D075D074D0730E
:20096000D072D071D070D0D0D0E022C0E0C0D0C070C071C072C073C074C075C076757000C8
:20098000757100757200757300757400757500757610E833F8E933F9E57033F570E5713336
:2009A000F571C3E5709AF572E5719BF5734006857270857371B3E57433F574E57533F575AA
:2009C000D576CFAA74AB75A870A971D076D075D074D073D072D071D070D0D0D0E022C0E0A6
:2009E000C0D0E82CF8E93DF9EA3EFAEB3FFB74003400FCD0D0D0E022C0E0C0D0E82AF8E9BC
:200A00003BF974003400FAD0D0D0E022C0E0C0D0C3E89CF8E99DF9EA9EFAEB9FFB74009491
:200A200000FCD0D0D0E022C0E0C0D0C3E89AF8E99BF974009400FAD0D0D0E022C0E0C0D0BA
:200A4000C077C078C0797579057B007A0A12096BE8C0E0EAF8EBF9D579EFD0E0FAD0E0C4CD
:200A6000F579D0E02579F9D0E0C4F579D0E02579F8D079D078D077D0D0D0E022C0D0C0F00F
:200A800075F00A84C425F0D0F0D0D022C0F0C0E0C0D0E8540FC0E0E8C4540F75F00AA4D04B
:200AA000F025F0C0E0E954F0C4C0E0E9540F75F064A4A9F0F8D0E075F00AA475F064A4285E
:200AC000F8E935F0F9D0E028F8740039F9D0D0D0E0D0F022C0D0C0F0C070F57053700F5474
:200AE000F0C475F00AA42570D070D0F0D0D022C083C082C0D0C08FC0B2C0BF758F0475BF47
:200B00000143B70843B70453B6F743B60490F000A3E582458370F943B602E5B620E1FB305A
:200B2000E0F5E5B7540F44A075BB98F5B753B7FB43B702E5B720E0FB53B7F743B610D0BF58
:130B4000D0B2D08FD0D0D082D08322438F0122538FFE2263
:00000001FF
