:2000000075817F12000902000612003722C0E0C0D01200DF1200BB75B00075100075B00E12
:200020001202DAE5925403B403EDF510F812012FC2B2D0D0D0E0221200A0C291742012028E
:20004000C1D290D2911204FA12000D7511001200F17511001200F175124212011075111E49
:200060001200F17511001200F17512431201107511001200F17511001200F175124012011B
:200080001075111E1200F17511001200F175124112011075128012011075129E12011022A1
:2000A000C08F758F04C0B275B2017590FF7591FF75B2007591FFD0B2D08F22C08F758F04C0
:2000C000C0B275B20075B1FFD0B2D08F22C08F758F04C0B275B2007593FFD0B2D08F22C0A5
:2000E0008F758F04C0B275B200759300D0B2D08F22C0E0C0D012000D1200CD85119275B04A
:20010000091202DAC2B2A81112012FD0D0D0E022C0E0C0D012000D1200CD85129275B00E7D
:200120001202DAC2B2A81212012FD0D0D0E022C0E0C0D0740D120532E812054E740A120513
:2001400032D0D0D0E022C08F758F04C0B275B20175C8FF75C9FF75B20075C900D0B2D08F4B
:2001600022C08F758F04C0B275B20143A00F43A10F75B20053A1F0D0B2D08F22C08F758F26
:2001800004C0B275B20075B1FFD0B2D08F22C08F758F04C0B275B200D287D28375B203D200
:2001A00083D28775B20043860853867FD0B2D08F22C08F758F04C0B275B200D283D287432F
:2001C00086801202B2C2871202B2C2831202B2D0B2D08F22C08F758F04C0B275B20043867D
:2001E00080C2871202B2D2831202B2D2871202B253867FD0B2D08F22C0E0C0F0C08F758F38
:2002000004C0B275B20075F0084386803392871202B2D2831202B2C283D5F0F053867F12FA
:2002200002B2D283A2871202B2C283D0B2D08FD0F0D0E022C08F758F04C0B275B200C0F06E
:20024000C0D075F00853867F1202B2D283A287331202B2C283D5F0F0438680C2871202B2BA
:20026000D2831202B2C28353867FD0D0D0F0D0B2D08F22C08F758F04C0B275B200C0F0C003
:20028000D075F00853867F1202B2D283A287331202B2C283D5F0F0438680D2871202B2D258
:2002A000831202B2C28353867FD0D0D0F0D0B2D08F22C0E0C0D075E01AD5E0FDD0D0D0E054
:2002C00022C0E0C0D0C0F075F0321202DAD5F0FAD5E0F4D0F0D0D0D0E022C0E0C0D075E078
:2002E000641202B2D5E0FAD0D0D0E022C0E0C0D0C0F012018E75F0FD120490741012048907
:20030000D5E0FA743012044812048974301204481204897430120448120489742012044859
:200320001204897428120432120489740F1204321204897401120432120489740612043213
:20034000120489D0F0D0D0D0E022C0E0C0D0B480005046B42000503CB40C077401120432EE
:20036000803AB40107740F1204328030B40207740E1204328026B40307740C120432801C3D
:20038000B40D0774021204328012B40A0F74C012043280081203F88003120432D0D0D0E04C
:2003A00022C0E0C0D0540F2430B43A00400224071203F8D0D0D0E022C0E0C0D0C41203A1B0
:2003C000C41203A1D0D0D0E022C0E0C0D0E5831203B8E5821203B8D0D0D0E022C0E0C0D0F6
:2003E000C083C082E493600712034AA30203E4D082D083D0D0D0E022C0E0C0D0120408C486
:20040000120408D0D0D0E022C0E0C0D0C0F01204A9D2F0C2F154F0030353F0C342F01204A0
:2004200090D2F1120490C2F1120490D0F0D0D0D0E022C0E0C0D0120448120489C4120448E9
:20044000120489D0D0D0E022C0E0C0D0C0F01204A9C2F0C2F154F0030353F0C342F01204EF
:2004600090D2F1120490C2F1120490D0F0D0D0D0E02274401204327400931203F820E703DE
:20048000A380F47480120432221202DA1202DA22C0E0C0D01201B174401201F8E5F012014E
:2004A000F81201D4D0D0D0E022C0E0C0D01201B174411201F81202731201D4F5F0D0D0D074
:2004C000E022C0F01204A9C2F6120490D0F022C0F01204A9D2F6120490D0F022C0F01204E6
:2004E000A9C2F7120490D0F022C0F01204A9D2F7120490D0F02208200800C0E0C08F758F2F
:2005000004C0B2C0BF75BF0075B2025390FD4390015391FE43910275B2005391FE4391023E
:2005200075985075BE9B75BD11D0BFD0B2D08FD0E022F5993099FDC29922C0E0C0D0540FA7
:2005400012062A120532120593D0D0D0E022C0E0C0D0C0E0C412053AD0E012053AD0D0D09E
:20056000E022C0E0C0D0E58312054EE58212054ED0D0D0E022C0E0C0D0C082C083E49360B2
:2005800009120532120593A380F3D083D082D0D0D0E022C0E0C0D0109805D0D0D0E022E5FE
:2005A00099B413F61098F380FB3098FDC298E599221205A912061D120634400EC4F81205AE
:2005C000A912061D1206344001482278541205A9547F12061DB40D02F622B40813B85407F5
:2005E000740712053280E6189004F612057580DD12060F40EBB87E0280E6F60880E4785428
:200600007954E6B4200508B880F822F70980F7B420004007B47F005002C322D322B47B00D4
:200620005007B461004002942022B40A0040022407243022C394304010B40A00400A94071B
:200640004007B41000B34001C322E61206342212064A4009C4F90812064A400149221206CC
:200660004F400AF5830812064F4002F58222C08F758F0475D10075CAB075CE0A75CC807510
:20068000D10675CC01D08F22C08F758F0475D10675CB2075D1000000E5CB20E0FB75D10284
:2006A000E5CB85CAF0D08F22C08F758F0475D10675CB1075D1000000E5CB20E0FB75D1029E
:2006C000E5CB85CAF0D08F22C0E0C0D0C070C071C072C073C074C075C076C077C078C0796D
:2006E000C07AC07BC07C757000757100757200757300757400757500757600757700757818
:2007000000757900757A00757B00757C20EB13FBEA13FAE913F9E813F8502CEC2574F574B9
:20072000ED3575F575EE3576F576EF3577F577E5703578F578E5713579F579E572357AF5D1
:200740007AE573357BF57BC3EC33FCED33FDEE33FEEF33FFE57033F570E57133F571E57239
:2007600033F572E57333F573D57CA2A874A975AA76AB77AC78AD79AE7AAF7BD07CD07BD07A
:200780007AD079D078D077D076D075D074D073D072D071D070D0D0D0E022C0E0C0D0C07060
:2007A000C071C072C073C074C075C0767570007571007572007573007574007575007576AC
:2007C00010E913F9E813F85016EA2572F572EB3573F573E5703574F574E5713575F575C344
:2007E000EA33FAEB33FBE57033F570E57133F571D576CEA872A973AA74AB75D076D075D005
:2008000074D073D072D071D070D0D0D0E022C0E0C0D0C070C071C072C073C074C075C07657
:20082000C077C078C079C07AC07BC07C757000757100757200757300757400757500757607
:2008400000757700757800757900757A00757B00757C20E833F8E933F9EA33FAEB33FBE5A4
:200860007033F570E57133F571E57233F572E57333F573C3E5709CF574E5719DF575E572CC
:200880009EF576E5739FF577400C857470857571857672857773B3E57833F578E57933F5BA
:2008A00079E57A33F57AE57B33F57BD57CA5AC78AD79AE7AAF7BA870A971AA72AB73D07C71
:2008C000D07BD07AD079D078D077D076D075D074D073D072D071D070D0D0D0E022C0E0C004
:2008E000D0C070C071C072C073C074C075C076757000757100757200757300757400757556
:2009000000757610E833F8E933F9E57033F570E57133F571C3E5709AF572E5719BF5734026
:2009200006857270857371B3E57433F574E57533F575D576CFAA74AB75A870A971D076D0A2
:2009400075D074D073D072D071D070D0D0D0E022C0E0C0D0E82CF8E93DF9EA3EFAEB3FFBC4
:2009600074003400FCD0D0D0E022C0E0C0D0E82AF8E93BF974003400FAD0D0D0E022C0E056
:20098000C0D0C3E89CF8E99DF9EA9EFAEB9FFB74009400FCD0D0D0E022C0E0C0D0C3E89A17
:2009A000F8E99BF974009400FAD0D0D0E022C0E0C0D0C077C078C0797579057B007A0A1272
:2009C00008DDE8C0E0EAF8EBF9D579EFD0E0FAD0E0C4F579D0E02579F9D0E0C4F579D0E042
:2009E0002579F8D079D078D077D0D0D0E022C0D0C0F075F00A84C425F0D0F0D0D022C0F0D9
:200A0000C0E0C0D0E8540FC0E0E8C4540F75F00AA4D0F025F0C0E0E954F0C4C0E0E9540F47
:200A200075F064A4A9F0F8D0E075F00AA475F064A428F8E935F0F9D0E028F8740039F9D01B
:200A4000D0D0E0D0F022C0D0C0F0C070F57053700F54F0C475F00AA42570D070D0F0D0D03D
:200A600022C083C082C0D0C08FC0B2C0BF758F0475BF0143B70843B70453B6F743B6049035
:200A8000F000A3E582458370F943B602E5B620E1FB30E0F5E5B7540F44A075BB98F5B753EA
:200AA000B7FB43B702E5B720E0FB53B7F743B610D0BFD0B2D08FD0D0D082D08322438F013D
:050AC00022538FFE220D
:00000001FF
