:0300000012000FDC
:20000B0012000E3275817F120A7012001B02001812004322C0E0C0D01200E51200C1751045
:20002B000075B00EE5C85403F812013EB403EFF510C2B2D0D0D0E0221200AF75A000C2A16B
:20004B0074501202D0D2A0D2A112050912001F7511001201007511001201007512421201A9
:20006B001F75111E12010075110012010075124312011F7511001201007511001201007563
:20008B00124012011F75111E12010075110012010075124112011F75128012011F75129E29
:2000AB0012011F22C08F758F04C0B275B20075A1FFD0B2D08F22C08F758F04C0B275B200E9
:2000CB0075B1FFD0B2D08F22C08F758F04C0B275B20075C9FFD0B2D08F22C08F758F04C0A6
:2000EB00B275B20175C8FF75C9FF75B20075C900D0B2D08F22C0E0C0D012001F1200D3856F
:20010B0011C875B0091202E9C2B2A81112013ED0D0D0E022C0E0C0D012001F1200D3851203
:20012B00C875B00E1202E9C2B2A81212013ED0D0D0E022C0E0C0D0740D120541E812055D66
:20014B00740A120541D0D0D0E022C08F758F04C0B275B20175C8FF75C9FF75B20075C9007D
:20016B00D0B2D08F22C08F758F04C0B275B20143A00F43A10F75B20053A1F0D0B2D08F228D
:20018B00C08F758F04C0B275B20075B1FFD0B2D08F22C08F758F04C0B275B200D287D2839E
:2001AB0075B203D283D28775B20043860853867FD0B2D08F22C08F758F04C0B275B200D247
:2001CB0083D2874386801202C1C2871202C1C2831202C1D0B2D08F22C08F758F04C0B275A1
:2001EB00B200438680C2871202C1D2831202C1D2871202C153867FD0B2D08F22C0E0C0F0D8
:20020B00C08F758F04C0B275B20075F0084386803392871202C1D2831202C1C283D5F0F0E8
:20022B0053867F1202C1D283A2871202C1C283D0B2D08FD0F0D0E022C08F758F04C0B2753D
:20024B00B200C0F0C0D075F00853867F1202C1D283A287331202C1C283D5F0F0438680C27C
:20026B00871202C1D2831202C1C28353867FD0D0D0F0D0B2D08F22C08F758F04C0B275B2FD
:20028B0000C0F0C0D075F00853867F1202C1D283A287331202C1C283D5F0F0438680D28757
:2002AB001202C1D2831202C1C28353867FD0D0D0F0D0B2D08F22C0E0C0D075E01AD5E0FDE3
:2002CB00D0D0D0E022C0E0C0D0C0F075F0321202E9D5F0FAD5E0F4D0F0D0D0D0E022C0E0F3
:2002EB00C0D075E0641202C1D5E0FAD0D0D0E022C0E0C0D0C0F012019D75F0FD12049F7499
:20030B0010120498D5E0FA74301204571204987430120457120498743012045712049874B4
:20032B00201204571204987428120441120498740F12044112049874011204411204987460
:20034B0006120441120498D0F0D0D0D0E022C0E0C0D0B480005046B42000503CB40C0774C0
:20036B0001120441803AB40107740F1204418030B40207740E1204418026B40307740C128E
:20038B000441801CB40D0774021204418012B40A0F74C01204418008120407800312044173
:2003AB00D0D0D0E022C0E0C0D0540F2430B43A0040022407120407D0D0D0E022C0E0C0D0BF
:2003CB00C41203B0C41203B0D0D0D0E022C0E0C0D0E5831203C7E5821203C7D0D0D0E02265
:2003EB00C0E0C0D0C083C082E4936007120359A30203F3D082D083D0D0D0E022C0E0C0D00F
:20040B00120417C4120417D0D0D0E022C0E0C0D0C0F01204B8D2F0C2F154F0030353F0C3CE
:20042B0042F012049FD2F112049FC2F112049FD0F0D0D0D0E022C0E0C0D01204571204986D
:20044B00C4120457120498D0D0D0E022C0E0C0D0C0F01204B8C2F0C2F154F0030353F0C3DD
:20046B0042F012049FD2F112049FC2F112049FD0F0D0D0D0E0227440120441740093120450
:20048B000720E703A380F47480120441221202E91202E922C0E0C0D01201C07440120207CE
:2004AB00E5F01202071201E3D0D0D0E022C0E0C0D01201C074411202071202821201E3F585
:2004CB00F0D0D0D0E022C0F01204B8C2F612049FD0F022C0F01204B8D2F612049FD0F02205
:2004EB00C0F01204B8C2F712049FD0F022C0F01204B8D2F712049FD0F02208200800C0E075
:20050B00C08F758F04C0B2C0BF75BF0075B2025390FD4390015391FE43910275B2005391B4
:20052B00FE43910275985075BE9B75BD11D0BFD0B2D08FD0E022F5993099FDC29922C0E0BB
:20054B00C0D0540F1206391205411205A2D0D0D0E022C0E0C0D0C0E0C4120549D0E012050E
:20056B0049D0D0D0E022C0E0C0D0E58312055DE58212055DD0D0D0E022C0E0C0D0C082C02A
:20058B0083E49360091205411205A2A380F3D083D082D0D0D0E022C0E0C0D0109805D0D032
:2005AB00D0E022E599B413F61098F380FB3098FDC298E599221205B812062C120643400E92
:2005CB00C4F81205B812062C1206434001482278541205B8547F12062CB40D02F622B408F2
:2005EB0013B85407740712054180E61890050512058480DD12061E40EBB87E0280E6F608EA
:20060B0080E478547954E6B4200508B880F822F70980F7B420004007B47F005002C322D3EA
:20062B0022B47B005007B461004002942022B40A0040022407243022C394304010B40A00A4
:20064B00400A94074007B41000B34001C322E6120643221206594009C4F908120659400132
:20066B00492212065E400AF5830812065E4002F58222C08F758F0475D10075CAB075CE0A9A
:20068B0075CC8075D10675CC01D08F22C08F758F0475D10675CB2075D1000000E5CB20E086
:2006AB00FB75D102E5CB85CAF0D08F22C08F758F0475D10675CB1075D1000000E5CB20E093
:2006CB00FB75D102E5CB85CAF0D08F22C0E0C0D0C070C071C072C073C074C075C076C07790
:2006EB00C078C079C07AC07BC07C7570007571007572007573007574007575007576007500
:20070B007700757800757900757A00757B00757C20EB13FBEA13FAE913F9E813F8502CEC4C
:20072B002574F574ED3575F575EE3576F576EF3577F577E5703578F578E5713579F579E5DA
:20074B0072357AF57AE573357BF57BC3EC33FCED33FDEE33FEEF33FFE57033F570E57133D5
:20076B00F571E57233F572E57333F573D57CA2A874A975AA76AB77AC78AD79AE7AAF7BD049
:20078B007CD07BD07AD079D078D077D076D075D074D073D072D071D070D0D0D0E022C0E07E
:2007AB00C0D0C070C071C072C073C074C075C0767570007571007572007573007574007541
:2007CB007500757610E913F9E813F85016EA2572F572EB3573F573E5703574F574E571357B
:2007EB0075F575C3EA33FAEB33FBE57033F570E57133F571D576CEA872A973AA74AB75D0E3
:20080B0076D075D074D073D072D071D070D0D0D0E022C0E0C0D0C070C071C072C073C0742C
:20082B00C075C076C077C078C079C07AC07BC07C75700075710075720075730075740075F1
:20084B007500757600757700757800757900757A00757B00757C20E833F8E933F9EA33FA37
:20086B00EB33FBE57033F570E57133F571E57233F572E57333F573C3E5709CF574E5719D84
:20088B00F575E5729EF576E5739FF577400C857470857571857672857773B3E57833F57874
:2008AB00E57933F579E57A33F57AE57B33F57BD57CA5AC78AD79AE7AAF7BA870A971AA724A
:2008CB00AB73D07CD07BD07AD079D078D077D076D075D074D073D072D071D070D0D0D0E011
:2008EB0022C0E0C0D0C070C071C072C073C074C075C0767570007571007572007573007527
:20090B007400757500757610E833F8E933F9E57033F570E57133F571C3E5709AF572E57100
:20092B009BF5734006857270857371B3E57433F574E57533F575D576CFAA74AB75A870A9DB
:20094B0071D076D075D074D073D072D071D070D0D0D0E022C0E0C0D0E82CF8E93DF9EA3E51
:20096B00FAEB3FFB74003400FCD0D0D0E022C0E0C0D0E82AF8E93BF974003400FAD0D0D0CE
:20098B00E022C0E0C0D0C3E89CF8E99DF9EA9EFAEB9FFB74009400FCD0D0D0E022C0E0C07F
:2009AB00D0C3E89AF8E99BF974009400FAD0D0D0E022C0E0C0D0C077C078C0797579057BE8
:2009CB00007A0A1208ECE8C0E0EAF8EBF9D579EFD0E0FAD0E0C4F579D0E02579F9D0E0C4B0
:2009EB00F579D0E02579F8D079D078D077D0D0D0E022C0D0C0F075F00A84C425F0D0F0D052
:200A0B00D022C0F0C0E0C0D0E8540FC0E0E8C4540F75F00AA4D0F025F0C0E0E954F0C4C0C6
:200A2B00E0E9540F75F064A4A9F0F8D0E075F00AA475F064A428F8E935F0F9D0E028F874E6
:200A4B000039F9D0D0D0E0D0F022C0D0C0F0C070F57053700F54F0C475F00AA42570D07090
:200A6B00D0F0D0D022C083C082C0D0C08FC0B2C0BF758F0475BF0143B70843B70453B6F757
:200A8B0043B60490F000A3E582458370F943B602E5B620E1FB30E0F5E5B7540F44A075BBE9
:200AAB0098F5B753B7FB43B702E5B720E0FB53B7F743B610D0BFD0B2D08FD0D0D082D08390
:090ACB0022438F0122538FFE2209
:00000001FF
