:03000000120035B6
:20000B0012000EC0E0C0D078FF12019685C8F020F203020025780112019620F7030200307E
:20002B007802120196D0D0D0E03275817F12003E02003B12004222120058120561758902B6
:20004B00758A01758C01D28CD2AFD2A922C08F758F04C0B275B20075C900D0B2D08F22C026
:20006B00E0C0D01201497592FF12011C75100075B00E120341E592F81201965403B403EC54
:20008B00F510F8120196C2B2D0D0D0E022120101C2917420120328D290D291120561120042
:2000AB006A75110012015875110012015875124212017775111E1201587511001201587521
:2000CB00124312017775110012015875110012015875124012017775111E1201587511006E
:2000EB0012015875124112017775128012017775129E12017722C08F758F04C0B275B201E5
:20010B007590FF7591FF75B2007591FFD0B2D08F22C08F758F04C0B275B20175B0FF75B161
:20012B00FF75B20075B1FFD0B2D08F22C08F758F04C0B275B2007593FFD0B2D08F22C08F1D
:20014B00758F04C0B2759300D0B2D08F22C0E0C0D012006A12013785119275B0091203416D
:20016B00C2B2A811120196D0D0D0E022C0E0C0D012006A12013785129275B00E120341C2C2
:20018B00B2A812120196D0D0D0E022C0E0C0D0740D120599E81205B5740A120599D0D0D01A
:2001AB00E022C08F758F04C0B275B20175C8FF75C9FF75B20075C900D0B2D08F22C08F759C
:2001CB008F04C0B275B20143A00F43A10F75B20053A1F0D0B2D08F22C08F758F04C0B275B6
:2001EB00B20075B1FFD0B2D08F22C08F758F04C0B275B200D287D28375B203D283D287752F
:20020B00B20043860853867FD0B2D08F22C08F758F04C0B275B200D283D2874386801203F9
:20022B0019C287120319C283120319D0B2D08F22C08F758F04C0B275B200438680C2871219
:20024B000319D283120319D28712031953867FD0B2D08F22C0E0C0F0C08F758F04C0B27584
:20026B00B20075F008438680339287120319D283120319C283D5F0F053867F120319D28339
:20028B00A287120319C283D0B2D08FD0F0D0E022C08F758F04C0B275B200C0F0C0D075F0AF
:2002AB000853867F120319D283A28733120319C283D5F0F0438680C287120319D2831203A2
:2002CB0019C28353867FD0D0D0F0D0B2D08F22C08F758F04C0B275B200C0F0C0D075F0085D
:2002EB0053867F120319D283A28733120319C283D5F0F0438680D287120319D28312031941
:20030B00C28353867FD0D0D0F0D0B2D08F22C0E0C0D075E01AD5E0FDD0D0D0E022C0E0C0AF
:20032B00D0C0F075F032120341D5F0FAD5E0F4D0F0D0D0D0E022C0E0C0D075E06412031994
:20034B00D5E0FAD0D0D0E022C0E0C0D0C0F01201F575F0FD1204F774101204F0D5E0FA746D
:20036B00301204AF1204F074301204AF1204F074301204AF1204F074201204AF1204F074C6
:20038B00281204991204F0740F1204991204F074011204991204F074061204991204F0D014
:2003AB00F0D0D0D0E022C0E0C0D0B480005046B42000503CB40C077401120499803AB4011C
:2003CB0007740F1204998030B40207740E1204998026B40307740C120499801CB40D0774D0
:2003EB00021204998012B40A0F74C0120499800812045F8003120499D0D0D0E022C0E0C0FE
:20040B00D0540F2430B43A004002240712045FD0D0D0E022C0E0C0D0C4120408C412040814
:20042B00D0D0D0E022C0E0C0D0E58312041FE58212041FD0D0D0E022C0E0C0D0C083C082AF
:20044B00E49360071203B1A302044BD082D083D0D0D0E022C0E0C0D012046FC412046FD014
:20046B00D0D0E022C0E0C0D0C0F0120510D2F0C2F154F0030353F0C342F01204F7D2F112EF
:20048B0004F7C2F11204F7D0F0D0D0D0E022C0E0C0D01204AF1204F0C41204AF1204F0D00A
:2004AB00D0D0E022C0E0C0D0C0F0120510C2F0C2F154F0030353F0C342F01204F7D2F112BF
:2004CB0004F7C2F11204F7D0F0D0D0D0E022744012049974009312045F20E703A380F474B0
:2004EB00801204992212034112034122C0E0C0D0120218744012025FE5F012025F12023BB8
:20050B00D0D0D0E022C0E0C0D0120218744112025F1202DA12023BF5F0D0D0D0E022C0F096
:20052B00120510C2F61204F7D0F022C0F0120510D2F61204F7D0F022C0F0120510C2F712B2
:20054B0004F7D0F022C0F0120510D2F71204F7D0F02208200800C0E0C08F758F04C0B2C0CB
:20056B00BF75BF0075B2025390FD4390015391FE43910275B2005391FE4391027598507537
:20058B00BE9B75BD11D0BFD0B2D08FD0E022F5993099FDC29922C0E0C0D0540F1206911253
:2005AB0005991205FAD0D0D0E022C0E0C0D0C0E0C41205A1D0E01205A1D0D0D0E022C0E049
:2005CB00C0D0E5831205B5E5821205B5D0D0D0E022C0E0C0D0C082C083E493600912059962
:2005EB001205FAA380F3D083D082D0D0D0E022C0E0C0D0109805D0D0D0E022E599B413F628
:20060B001098F380FB3098FDC298E5992212061012068412069B400EC4F8120610120684B5
:20062B0012069B400148227854120610547F120684B40D02F622B40813B85407740712059F
:20064B009980E61890055D1205DC80DD12067640EBB87E0280E6F60880E478547954E6B44A
:20066B00200508B880F822F70980F7B420004007B47F005002C322D322B47B005007B46164
:20068B00004002942022B40A0040022407243022C394304010B40A00400A94074007B41011
:2006AB0000B34001C322E612069B221206B14009C4F9081206B1400149221206B6400AF542
:2006CB0083081206B64002F58222C08F758F0475D10075CAB075CE0A75CC8075D10675CCB4
:2006EB0001D08F22C08F758F0475D10675CB2075D1000000E5CB20E0FB75D102E5CB85CA32
:20070B00F0D08F22C08F758F0475D10675CB1075D1000000E5CB20E0FB75D102E5CB85CA32
:20072B00F0D08F22C0E0C0D0C070C071C072C073C074C075C076C077C078C079C07AC07B8B
:20074B00C07C75700075710075720075730075740075750075760075770075780075790033
:20076B00757A00757B00757C20EB13FBEA13FAE913F9E813F8502CEC2574F574ED3575F5B0
:20078B0075EE3576F576EF3577F577E5703578F578E5713579F579E572357AF57AE57335EB
:2007AB007BF57BC3EC33FCED33FDEE33FEEF33FFE57033F570E57133F571E57233F572E556
:2007CB007333F573D57CA2A874A975AA76AB77AC78AD79AE7AAF7BD07CD07BD07AD079D0FB
:2007EB0078D077D076D075D074D073D072D071D070D0D0D0E022C0E0C0D0C070C071C07225
:20080B00C073C074C075C076757000757100757200757300757400757500757610E913F99E
:20082B00E813F85016EA2572F572EB3573F573E5703574F574E5713575F575C3EA33FAEBDB
:20084B0033FBE57033F570E57133F571D576CEA872A973AA74AB75D076D075D074D073D014
:20086B0072D071D070D0D0D0E022C0E0C0D0C070C071C072C073C074C075C076C077C07804
:20088B00C079C07AC07BC07C7570007571007572007573007574007575007576007577001F
:2008AB00757800757900757A00757B00757C20E833F8E933F9EA33FAEB33FBE57033F5701D
:2008CB00E57133F571E57233F572E57333F573C3E5709CF574E5719DF575E5729EF576E57B
:2008EB00739FF577400C857470857571857672857773B3E57833F578E57933F579E57A3332
:20090B00F57AE57B33F57BD57CA5AC78AD79AE7AAF7BA870A971AA72AB73D07CD07BD07A7B
:20092B00D079D078D077D076D075D074D073D072D071D070D0D0D0E022C0E0C0D0C070C06D
:20094B0071C072C073C074C075C076757000757100757200757300757400757500757610AF
:20096B00E833F8E933F9E57033F570E57133F571C3E5709AF572E5719BF573400685727049
:20098B00857371B3E57433F574E57533F575D576CFAA74AB75A870A971D076D075D074D01B
:2009AB0073D072D071D070D0D0D0E022C0E0C0D0E82CF8E93DF9EA3EFAEB3FFB740034003A
:2009CB00FCD0D0D0E022C0E0C0D0E82AF8E93BF974003400FAD0D0D0E022C0E0C0D0C3E858
:2009EB009CF8E99DF9EA9EFAEB9FFB74009400FCD0D0D0E022C0E0C0D0C3E89AF8E99BF972
:200A0B0074009400FAD0D0D0E022C0E0C0D0C077C078C0797579057B007A0A120944E8C086
:200A2B00E0EAF8EBF9D579EFD0E0FAD0E0C4F579D0E02579F9D0E0C4F579D0E02579F8D0FD
:200A4B0079D078D077D0D0D0E022C0D0C0F075F00A84C425F0D0F0D0D022C0F0C0E0C0D0A3
:200A6B00E8540FC0E0E8C4540F75F00AA4D0F025F0C0E0E954F0C4C0E0E9540F75F064A49F
:200A8B00A9F0F8D0E075F00AA475F064A428F8E935F0F9D0E028F8740039F9D0D0D0E0D0CD
:200AAB00F022C0D0C0F0C070F57053700F54F0C475F00AA42570D070D0F0D0D022C083C0FD
:200ACB0082C0D0C08FC0B2C0BF758F0475BF0143B70843B70453B6F743B60490F000A3E577
:200AEB0082458370F943B602E5B620E1FB30E0F5E5B7540F44A075BB98F5B753B7FB43B74B
:200B0B0002E5B720E0FB53B7F743B610D0BFD0B2D08FD0D0D082D08322438F0122538FFE7B
:010B2B0022A7
:00000001FF
