:03000000020022D9
:20000B00C0E0C0D0E5A0B5140302001DF8121545F514D0D0D0E03275817F12002B0200286A
:20002B0012196F75B2001215A4220000000000000000000000000000000000000000000007
:20004B00000000000000000000000000000000000000000000000000000000000000000095
:20006B00000000000000000000000000000000000000000000000000000000000000000075
:20008B00000000000000000000000000000000000000000000000000000000000000000055
:2000AB00000000000000000000000000000000000000000000000000000000000000000035
:2000CB00000000000000000000000000000000000000000000000000000000000000000015
:2000EB000000000000000000000000000000000000000000000000000000000000000000F5
:20010B000000000000000000000000000000000000000000000000000000000000000000D4
:20012B000000000000000000000000000000000000000000000000000000000000000000B4
:20014B00000000000000000000000000000000000000000000000000000000000000000094
:20016B00000000000000000000000000000000000000000000000000000000000000000074
:20018B00000000000000000000000000000000000000000000000000000000000000000054
:2001AB00000000000000000000000000000000000000000000000000000000000000000034
:2001CB00000000000000000000000000000000000000000000000000000000000000000014
:2001EB000000000000000000000000000000000000000000000000000000000000000000F4
:20020B000000000000000000000000000000000000000000000000000000000000000000D3
:20022B000000000000000000000000000000000000000000000000000000000000000000B3
:20024B00000000000000000000000000000000000000000000000000000000000000000093
:20026B00000000000000000000000000000000000000000000000000000000000000000073
:20028B00000000000000000000000000000000000000000000000000000000000000000053
:2002AB00000000000000000000000000000000000000000000000000000000000000000033
:2002CB00000000000000000000000000000000000000000000000000000000000000000013
:2002EB000000000000000000000000000000000000000000000000000000000000000000F3
:20030B000F3C000000001F3000000001300000000000000000000001000000000000000006
:20032B00000000073F3F00001F3C000000003F380000001F3E001F3C00000000000000079C
:20034B0000000000073F2000000000073F3938001F3E000000003F380000013E03201F3CE4
:20036B00000000000000001F00000000033F2000000000073F3006000F3C000000003F38B3
:20038B000000033E00301F3C000000000000033F00000000033F2000000000073F30030069
:2003AB000730000000300F200000073E00001F3C000000000000073F00000000033F200054
:2003CB00000000073F300120000000000120000000000F3F00001F3C000000000000073F6B
:2003EB0000000000033F2000000000073F3000301F3C001F3F003F3800000F3F20001F3CF1
:20040B00000E00073E003F3F3C013F30033F213F200000073F3000101F3C013C1F003F38DE
:20042B0000000F3F30001F3C003E000F0720073F00033C0C033F273F300000073F3000087D
:20044B001F3C033C1F203F3800000F3F38001F3C0120003E0330073F000F3807033F3C3F7D
:20046B00380000073F3000081F3C073C1F303F3800000F3F3C001F3C0600013E0338073FAC
:20048B00000F3803033F303F380000073F3000041F3C0F3C1F383F3800000F3F3C001F3C4B
:2004AB000E00013E033C073F001F3801033F203F3C0000073F3000041F3C0F3C1F383F383C
:2004CB000000073F3E001F3C1F00033E033C073F003F3800033F201F3C0000073F3000049F
:2004EB001F3C0F3C1F383F380000073F3F001F3C3F00073E033E073F003F3800033F201F9A
:20050B003C0000073F3000041F3C0F3C1F383F380000033F3F201F3F3F20073E033E073F7C
:20052B00003F3800033F201F3C0000073F3000041F3C0F3C1F383F380000013F3F301F3F81
:20054B003F20073E033E073F013F3800033F201F3C0000073F3000041F3C0F3C1F303F3949
:20056B003F3F003F3F301F3F3F30073F0F3F073F013F3800033F201F3C0000073F300004EE
:20058B001F3C073C1F303F380000001F3F381F3D3F38073F3F3E073F013F3800033F201F81
:2005AB003C0000073F30000C1F3C033C1F203F380000001F3F381F3D3F38073E0000073F2E
:2005CB00013F3800033F201F3C0000073F3000081F3C033C3E003F380000000F3F381F3C2D
:2005EB003F3C073E0000073F003F3800033F201F3C0000073F3000181F3C060F38003F3809
:20060B00000000073F3C1F3C1F3C073E0000073F003F3800033F201F3C0000073F30003032
:20062B001F3C0E0000003F38000000033F381F3C1F3E033E0006073F023F3800333F201FE6
:20064B003C0000073F3000201F3C0F3F3F003F38000000013F381F3C0F3F033E000E073FA8
:20066B00021F3801233F203F3C0000073F3003001F3C0F3F3F203F38000008003F381F3C46
:20068B000F3F013E000C073F060F3803033F203F3C0000073F3006001F3C0F3F3F203F3848
:2006AB0000000E003F301F3C073F203E0038033F2C0F3806073F203F3C0000073F30380031
:2006CB001F3E073F3F203F38000003203F201F3C073F301F0320013F3803381C073F203F8D
:2006EB003C0000073F3F20001F3E033F3F203F380000003F3E001F3C033F38073E00003FC3
:20070B0020013F30073F203F3C00000000000000000000000700000000000007200000002F
:20072B000000000000000000000000000000000000000000000000000000000000000000AE
:20074B0000000000000000000000000000000000000000000000000000000000000000008E
:20076B0000000000000000000000000000000000000000000000000000000000000000006E
:20078B0000000000000000000000000000000000000000000000000000000000000000004E
:2007AB0000000000000000000000000000000000000000000000000000000000000000002E
:2007CB0000000000000000000000000000000000000000000000000000000000000000000E
:2007EB000000000000000000000000000000000000000000000000000000000000000000EE
:20080B000000000000000000000000000000000000000000000000000000000000000000CD
:20082B000000000000000000000000000000000000000000000000000000000000000000AD
:20084B0000000000000000000000000000000000000000000000000000000000000000008D
:20086B0000000000000000000000000000000000000000000000000000000000000000006D
:20088B0000000000000000000000000000000000000000000000000000000000000000004D
:2008AB0000000000000000000000000000000000000000000000000000000000000000002D
:2008CB0000000000000000000000000000000000000000000000000000000000000000000D
:2008EB000000000000000000000000000000000000000000000000000000000000000000ED
:20090B000000000000000000000000000000000000000000000000000000000000000000CC
:20092B000000000000000000000000000000000000000000000000000000000000000000AC
:20094B0000000000000000000000000000000000000000000000000000000000000000008C
:20096B0000000000000000000000000000000000000000000000000000000000000000006C
:20098B0000000000000000000000000000000000000000000000000000000000000000004C
:2009AB0000000000000000000000000000000000000000000000000000000000000000002C
:2009CB0000000000000000000000000000000000000000000000000000000000000000000C
:2009EB000000000000000000000000000000000000000000000000000000000000000000EC
:200A0B000000000000000000000000000000000000000000000000000000000000000000CB
:200A2B0000000000000000000000AA3F3F3F3F3F3F3F3F3F3F3F3F3F3F3F3F3F3F3F3F3FD6
:200A4B003F3F3F3F3F3F3F3F3F3F3F3F3F3F3F3F3F3F3F3F3F3F3F3F3F3F3F3F3F3F3F3FAB
:200A6B003F3F3F3F3F3F3F3F3F3F3F3F3F3F3F3F3F3F3F3F3F3F3F3F3F3F3F3F3F3F3F3F8B
:200A8B003F3F3F3F3F3F3F3F3F3F3F3F3F3F3F3F3F3F3F3F3F3F3F3F3F3F3F3F3F3F3F3F6B
:200AAB003F3F3F3F3F3F3F3F3F3F3F3F3F3F3F3F3F3F3F3F3F3F3F3F3F3F3F3F3F3F3F3F4B
:200ACB003F3F3F3F3F3F3F3F3F3F3F0F3F3F3F3F3F3F3F3F3F3F3F3F3F3F3F3F3F3F3F3F5B
:200AEB003F3F3F3F3F3F3F3F3F3F3F3F3F3F3F3F3F3F3C073F3F3F3F3F3F3F3F3F3F3F3F46
:200B0B003F3F3F3F3F3F3F3F3F3F3F3F3F3F3F3F3F3F3F3F3F3F3F3F3F3F3000073F3F3F70
:200B2B003F3F3F3F3F3F3F3F3F3F3F3F3F3F3F3F3F3F3F3F3F3F3F3F3F3F3F3F3F3F3F3FCA
:200B4B003F380000033F3F3F3F3F3F3F3F3F3F3F3F3F3F3F3F3F3F3F3F3F3F3F3F3F3F3F6B
:200B6B003F3F3F3F3F3F3F3F3F2000000F3F3F3F3F3F3F3F3F3F3F3F3F3F3F3F3F3F3F3F57
:200B8B003F3F3F3F3F3F3F3F3F3F3F3F3F3F3F3F3F3C0000003F3F3F3F3F3F3F3F3F3F3F2A
:200BAB003F3F3F3F3F3F3F3F3F3F3F3F3F3F3F3F3F3F3F3F3F3F3F3F3E0000000007201FBE
:200BCB003F3F3F3F3F3F3F3F3F3F3F3F3F3F3F3F3F3F3F3F3F213F3F3F3F3F3F3F3F3C0387
:200BEB00380000000004000F3F3F3F3F3F3F3F3F3F3F3F3F3F3F3F3F3F3F3F3F3F383F3FBE
:200C0B003F3F3F3F3F3F380008000000000000013F3F3F3F3F3F3F3F3F3F3F3F3F3F3F3F1E
:200C2B003F3F3F3C1F243F3F3F3F3F3F3F3F0000000000000000000007233F3F3F3F3F3FD1
:200C4B003F3F3F3F3F3F3F3F3F3F3F3F02073F3F3F3F3F3F21300000000000380000000089
:200C6B0000003F3F3F3F3F3F3F3F3F3F3F3F3F3F3F3F3F3F301F3F3F3F3F3F3F0020000012
:200C8B0000000E0B20003F30000000173F3F3F3F3F3F3F3F3F3F3F3F3F3F3F3E0C0F3F3F02
:200CAB003F3F32000000073E000325000F2512380000073F3F3F3F3F3F3F3F3F3F3F3F3F54
:200CCB003F3F3F3C1E073F3F3F3F3F3000000E150B3C02150A251020000010173F000C0F1F
:200CEB003F3F3F3F3F3F2003000F3F3333233F3F3F3F3000000002050A25120A25120000C0
:200D0B00000430102100000F3F3F3F3F3F3F2000001F3F27073B3F3F3D0200011000000025
:200D2B00050A250A3F322C0F301F301F3F00000F380F380F3F3F2000000F3C001F3F3F3F7F
:200D4B003F3F3F2F3C07380A373E25153F3D123F3F3C001F3F3D3C0F380F380F3F3F203FCF
:200D6B00380F38093F3F3F3F3F3F3F3F3F3F3E150F3F123F3F3F3F3F3F3C013F3F013C0F36
:200D8B00380C00003F3F203F380C0B2C180101203E0700040F3F3F3F3F3F3F3F3F3F3F3F65
:200DAB003F3C013F3F013C0F3F3C00003F3F203F380C0120180001203C0700000F3F3F3FDD
:200DCB003F3F3F3F3F3F3F3F3F3F301803000000180C00003F3F2C00003C00001800012004
:200DEB003C0700000F3F3F3F3F3F3F3F3F3F3F3F3F3F301803000000180F380F3F3F240008
:200E0B00000C07301E0F01203C0703380F3F3F3F3F3F3F3F3F3F3F3F3F3F301F3F013F3078
:200E2B00180F380F3F3F203C033C0730180F01203C0720000F3F3F3F3F3F3F3F3F3F3F3F7A
:200E4B003F3F301F3F013F30181F380F3F3F203E073C0730180F05203C0700000F3F3F3FDC
:200E6B003F3F3F3F3F3C073F3F3F303F3F213F30180F380F3F3F203E073C0730180F0F20D4
:200E8B003C07033F3F3F3F3F3F3F3F3F3F38033F3F3F301F3F200000380F38003F3F203E8A
:200EAB00000C000018000120000700000F3F3F3F3F3F3F3F3F30313F3F3F301F3F00000127
:200ECB00380F38003F3F203E200C000018000120011700000F3F3F073F3F3F3F3F38333FB6
:200EEB003F3F301F3F001C08180F38083F3F203E090C060018000120062700300F3F3C1524
:200F0B003F3F3F3F203B0B3E0B3F3F3F3F3F3F3F3F3F3F3F3F3F3F3F3F3F3F3F3F3F013FB0
:200F2B003F3F3F3F3F3F3C0E3F3F3F3F2F393B3E1F3F3F3F3F3F3F3F3F3F3F3F3F3F3F3F35
:200F4B003F3F3F3F3800013F3F3F3F3F3F3F281F373F3F3F2F3F3F3E1F3F3F3F3F3F3F3F9A
:200F6B003F3F3F3F3F3F3F3F3F3F3F3F3801013F3F3F3F3F3F3E101D3B3F3F3F2F00000E1E
:200F8B001F3F3F3C3F3F3F3F3F3F3F3F3F3F3F3F3F3F3F3F3F3F3F3F3F3F3F3F3F380F3FC0
:200FAB003A3F3F3F3F3F3F3F3F3F3F311F3F3F3F3F3F3F3F3F3F3F3F3F3F3F3F3F3F3F3F79
:200FCB003F3F3F3F3F30153B3F073F3F073F3F3C0F3F3F2D373F3F3F3F3F3F3F3F3F3F3F20
:200FEB003F3F3F3F3F3F3F3F3F3F3F3F3C0E0F3F3F3F3F3E01300138073F3F122F3F3F3F72
:20100B003F3F3F3F3F3F3F3F3F3F3F3F3F3F3F3F3F3F3F3F3F3F3F3F3F3F3F3F3F2B0A1F4E
:20102B003F3F32032F1F3F3F3F3F3F3F3F3F3F3F3F3F3F3F3F3F3F3F3F3F3F3F3F3F3F3F3E
:20104B003F3F3F3E01290A18073F242F3F3F3F3F3F3F3F3F3F3F3F3F3F3F3F3F3F3F3F3FB9
:20106B003F3F3F3F3F3F3F3F3F3F3F3E01293A18073E022F1F383F3F3F3F3F3F3F3F3F3FB3
:20108B003F3F3F3F3F3F3F3F3F3F3F3F3F3F3F3F3F3F3F3E01280218073C1D1E2F3F3F3FAD
:2010AB003F3F3F3F3F3F3F3F3F3F3F3F3F3F3F0F3F3F2F3F3F3F3F3F3F3F3F322E183326EF
:2010CB00353F3F3F3F3F3F3F3F3F3F3F3F3F3F3F3F3F3F3F3F3F3D0B3F3E253F3F343F3F8B
:2010EB003F3F3F3004000004013F3F3F3F3F3F3F3F3F3F3F3F3F3F3F3F3F3F3F3F3F3A1575
:20110B003F3D123F3F2A1F3F3F3F3F300720001C013F383F07381F233F3F3F3F3F3F3F3FD0
:20112B003F3F3F3F3F3F3F373F3F333F3F172F3F3F033C3800273C10033F201E01300E0117
:20114B003F3F3F3F3F3F3F3F3F3F3F3F3F3F3D0B3C0E2D3E0F000F3F3E01303914200015C7
:20116B000B3E201203100B012F3F3F3F3F3F3F3F3F3F3F3F3F3F3C32180E110C07042F3F3E
:20118B003A011838002F3E10033C12211409102A073F3F3F3F3F3F3F3F3F3F3F3F3F3E12E9
:2011AB000907110827000F3F210A053F322F3E1C3F380F003807201C033F3F3F3F3F3F3F9F
:2011CB003F3F3F3F3F3F3D320906310827000A17003C0338002F3E10033807003807201CDA
:2011EB00033F3F3F3F3F3F3F3F3F3F3F3F2E1F3F3F3F3F3F3F0A0F3F003C0339142F3E15C0
:20120B000B20020010010008013F3F3F3F3F3F3F3F3F3F3F3F102F300007300007200806AD
:20122B0000080130002F3E10013E3F333F1F3B3F0F3F3F3F3F3F3F3F3F3F3F3F3F2C1F37DF
:20124B000D27332E370E02173B3F1F2000280210003E3F333F1F3B3F0F3F3F3F3F3F3F3F4D
:20126B003F3F3F3F3F2C1F3700073320070E08073B3F1F000000000000000000000000008F
:20128B0000000000000C1F3F060000000000000000000000000000000000000000010000D2
:2012AB0000200000100000080000080000041F3F040000010000010000002000001000004B
:2012CB000800000000000000000000000000000000000000000410010400000000000000E2
:2012EB000000000000000000000000000000000000000000000000000000000000041417B4
:20130B00040000000000000000000000000000000000000C1830060C38030E1803260C01C1
:20132B00230E003127041F3F041C31200C1830060C38030E1803260C0123061F3F380F3F3C
:20134B003C0F3F3C073F3E033F3F013F3F253F3F043F3F301F3F380F3F3C0F3F3C073F3EB5
:20136B00033F3F30380F383C073C1E073C0E033E07013F07203C1F3F0F21301F30380F38CD
:20138B003C073C1E073C0E033E07012010033008013008003804003C02001E01000C110FA2
:2013AB00070020072010033008013008003804003C02000000010008002000001000021883
:2013CB00000008010004100106000013000003000800200000100000180000000004000074
:2013EB0002000001000001000000200000141F3F0400000800000400000200000100000138
:20140B000000000000120000190000082000042000021000030C1F3F040000240000120091
:20142B000019000008200004200002AAC0E0C0D0C21075C900D2B3D2B0C2B1E5C8D2B1D2D4
:20144B00B3F5105403B403F1F812154575C9FFD0D0D0E0227586FF75B1FFC2B2D2B0D2B11F
:20146B00D280C28112174FD281121437C217C21875128012152F7511001214E2751100126E
:20148B0014E275124212152F7511281214E27511001214E275124312152F7511001214E23A
:2014AB0075110A1214E275124012152F7511281214E27511001214E275124112152F751184
:2014CB00001214E27511001214E275122412152F75129012152F22C0E0C0D01214378511B8
:2014EB00C8C2B300C2B000D2B0D0D0D0E022C0E0C0D0121437E5105404B404F68511C8C296
:20150B00B300C2B000D2B0D0D0D0E022C0E0C0D012143775C900C2B3C2B1000085C811D0C6
:20152B00D0D0E022C0E0C0D01214378512C8D2B3C2B000D2B0D0D0D0E022C0E0C0D0740D76
:20154B001219A7E81219C3740A1219A7D0D0D0E022C0E0C0D07515FF75160F751280121595
:20156B002F75129C12152F7512B012152F7511001214F9D515F77515FFD516F17512B212F5
:20158B00152F7511001214E27511001214E275122412152FD0E0D0D02275A100C213C214AC
:2015AB00758902758CC8758AC8D2AFD2A9D28C22C08F758F04C0B275B20175C8FF75C9FFAA
:2015CB0075B20075C900D0B2D08F22C08F758F04C0B275B20143A00F43A10F75B20053A1A7
:2015EB00F0D0B2D08F22C08F758F04C0B275B20075B1FFD0B2D08F22C08F758F04C0B27597
:20160B00B200D287D28375B203D283D28775B20043860853867FD0B2D08F22C08F758F04DD
:20162B00C0B275B200D283D287438680121727C287121727C283121727D0B2D08F22C08F3F
:20164B00758F04C0B275B200438680C287121727D283121727D28712172753867FD0B2D004
:20166B008F22C0E0C0F0C08F758F04C0B275B20075F008438680339287121727D28312179E
:20168B0027C283D5F0F053867F121727D283A287121727C283D0B2D08FD0F0D0E022C08FA1
:2016AB00758F04C0B275B200C0F0C0D075F00853867F121727D283A28733121727C283D50E
:2016CB00F0F0438680C287121727D283121727C28353867FD0D0D0F0D0B2D08F22C08F75D4
:2016EB008F04C0B275B200C0F0C0D075F00853867F121727D283A28733121727C283D5F053
:20170B00F0438680D287121727D283121727C28353867FD0D0D0F0D0B2D08F22C0E0C0D007
:20172B0075E01AD5E0FDD0D0D0E022C0E0C0D0C0F075F03212174FD5F0FAD5E0F4D0F0D024
:20174B00D0D0E022C0E0C0D075E064121727D5E0FAD0D0D0E022C0E0C0D0C0F01216037502
:20176B00F0FD12190574101218FED5E0FA74301218BD1218FE74301218BD1218FE743012CA
:20178B0018BD1218FE74201218BD1218FE74281218A71218FE740F1218A71218FE74011206
:2017AB0018A71218FE74061218A71218FED0F0D0D0D0E022C0E0C0D0B480005046B42000C4
:2017CB00503CB40C0774011218A7803AB40107740F1218A78030B40207740E1218A7802635
:2017EB00B40307740C1218A7801CB40D0774021218A78012B40A0F74C01218A7800812180E
:20180B006D80031218A7D0D0D0E022C0E0C0D0540F2430B43A004002240712186DD0D0D041
:20182B00E022C0E0C0D0C4121816C4121816D0D0D0E022C0E0C0D0E58312182DE582121871
:20184B002DD0D0D0E022C0E0C0D0C083C082E49360071217BFA3021859D082D083D0D0D038
:20186B00E022C0E0C0D012187DC412187DD0D0D0E022C0E0C0D0C0F012191ED2F0C2F154B5
:20188B00F0030353F0C342F0121905D2F1121905C2F1121905D0F0D0D0D0E022C0E0C0D0A7
:2018AB001218BD1218FEC41218BD1218FED0D0D0E022C0E0C0D0C0F012191EC2F0C2F154E7
:2018CB00F0030353F0C342F0121905D2F1121905C2F1121905D0F0D0D0D0E02274401218B9
:2018EB00A774009312186D20E703A380F474801218A72212174F12174F22C0E0C0D0121626
:20190B0026744012166DE5F012166D121649D0D0D0E022C0E0C0D0121626744112166D1226
:20192B0016E8121649F5F0D0D0D0E022C0F012191EC2F6121905D0F022C0F012191ED2F652
:20194B00121905D0F022C0F012191EC2F7121905D0F022C0F012191ED2F7121905D0F022D2
:20196B0008200800C0E0C08F758F04C0B2C0BF75BF0075B2025390FD4390015391FE43917D
:20198B000275B2005391FE43910275985075BE9B75BD11D0BFD0B2D08FD0E022F599309954
:2019AB00FDC29922C0E0C0D0540F121A9F1219A7121A08D0D0D0E022C0E0C0D0C0E0C41226
:2019CB0019AFD0E01219AFD0D0D0E022C0E0C0D0E5831219C3E5821219C3D0D0D0E022C02B
:2019EB00E0C0D0C082C083E49360091219A7121A08A380F3D083D082D0D0D0E022C0E0C074
:201A0B00D0109805D0D0D0E022E599B413F61098F380FB3098FDC298E59922121A1E121A46
:201A2B0092121AA9400EC4F8121A1E121A92121AA9400148227854121A1E547F121A92B447
:201A4B000D02F622B40813B8540774071219A780E61890196B1219EA80DD121A8440EBB88E
:201A6B007E0280E6F60880E478547954E6B4200508B880F822F70980F7B420004007B47F9C
:201A8B00005002C322D322B47B005007B461004002942022B40A0040022407243022C39464
:201AAB00304010B40A00400A94074007B41000B34001C322E6121AA922121ABF4009C4F946
:201ACB0008121ABF40014922121AC4400AF58308121AC44002F58222C08F758F0475D1003A
:201AEB0075CAB075CE0A75CC8075D10675CC01D08F22C08F758F0475D10675CB2075D10086
:201B0B000000E5CB20E0FB75D102E5CB85CAF0D08F22C08F758F0475D10675CB1075D1001E
:201B2B000000E5CB20E0FB75D102E5CB85CAF0D08F22C0E0C0D0C070C071C072C073C0740D
:201B4B00C075C076C077C078C079C07AC07BC07C75700075710075720075730075740075BE
:201B6B007500757600757700757800757900757A00757B00757C20EB13FBEA13FAE913F95E
:201B8B00E813F8502CEC2574F574ED3575F575EE3576F576EF3577F577E5703578F578E57D
:201BAB00713579F579E572357AF57AE573357BF57BC3EC33FCED33FDEE33FEEF33FFE57010
:201BCB0033F570E57133F571E57233F572E57333F573D57CA2A874A975AA76AB77AC78AD4F
:201BEB0079AE7AAF7BD07CD07BD07AD079D078D077D076D075D074D073D072D071D070D0B1
:201C0B00D0D0E022C0E0C0D0C070C071C072C073C074C075C076757000757100757200755B
:201C2B007300757400757500757610E913F9E813F85016EA2572F572EB3573F573E570359D
:201C4B0074F574E5713575F575C3EA33FAEB33FBE57033F570E57133F571D576CEA872A987
:201C6B0073AA74AB75D076D075D074D073D072D071D070D0D0D0E022C0E0C0D0C070C071D0
:201C8B00C072C073C074C075C076C077C078C079C07AC07BC07C75700075710075720075B5
:201CAB007300757400757500757600757700757800757900757A00757B00757C20E833F81E
:201CCB00E933F9EA33FAEB33FBE57033F570E57133F571E57233F572E57333F573C3E570DC
:201CEB009CF574E5719DF575E5729EF576E5739FF577400C857470857571857672857773B8
:201D0B00B3E57833F578E57933F579E57A33F57AE57B33F57BD57CA5AC78AD79AE7AAF7B73
:201D2B00A870A971AA72AB73D07CD07BD07AD079D078D077D076D075D074D073D072D071DE
:201D4B00D070D0D0D0E022C0E0C0D0C070C071C072C073C074C075C07675700075710075F1
:201D6B007200757300757400757500757610E833F8E933F9E57033F570E57133F571C3E584
:201D8B00709AF572E5719BF5734006857270857371B3E57433F574E57533F575D576CFAAF5
:201DAB0074AB75A870A971D076D075D074D073D072D071D070D0D0D0E022C0E0C0D0E82CC7
:201DCB00F8E93DF9EA3EFAEB3FFB74003400FCD0D0D0E022C0E0C0D0E82AF8E93BF97400B9
:201DEB003400FAD0D0D0E022C0E0C0D0C3E89CF8E99DF9EA9EFAEB9FFB74009400FCD0D09F
:201E0B00D0E022C0E0C0D0C3E89AF8E99BF974009400FAD0D0D0E022C0E0C0D0C077C078E8
:201E2B00C0797579057B007A0A121D52E8C0E0EAF8EBF9D579EFD0E0FAD0E0C4F579D0E024
:201E4B002579F9D0E0C4F579D0E02579F8D079D078D077D0D0D0E022C0D0C0F075F00A843B
:201E6B00C425F0D0F0D0D022C0F0C0E0C0D0E8540FC0E0E8C4540F75F00AA4D0F025F0C07A
:201E8B00E0E954F0C4C0E0E9540F75F064A4A9F0F8D0E075F00AA475F064A428F8E935F01E
:201EAB00F9D0E028F8740039F9D0D0D0E0D0F022C0D0C0F0C070F57053700F54F0C475F062
:201ECB000AA42570D070D0F0D0D022C083C082C0D0C08FC0B2C0BF758F0475BF0143B7085E
:201EEB0043B70453B6F743B60490F000A3E582458370F943B602E5B620E1FB30E0F5E5B7EE
:201F0B00540F44A075BB98F5B753B7FB43B702E5B720E0FB53B7F743B610D0BFD0B2D08FE9
:0F1F2B00D0D0D082D08322438F0122538FFE2249
:00000001FF
