:2000000075817F1201B412006675110012014175110012014175122412016175112412019C
:20002000417512C012016175129C1201617511241201417512C01201617511241201417501
:2000400012C01201617511241201417512C01201617511241201417512C012016175129CC5
:2000600012016102002D12009722C0E0C0D012012F751000D29212030575905DD294C2957E
:20008000D293E5B05403B403E8F510A810120182C293D0D0D0E02212010BC290D296C2932A
:2000A0007414120314D29012054D30A0FD12006A75128012016130A0FD75110012014175E9
:2000C000110012014175124212016130A0FD75112812014175110012014175124312016197
:2000E00030A0FD75110012014175110012014175124012016130A0FD7511281201417511EF
:200100000012014175124112016122C08F758F04C0B275B2007591FFD0B2D08F22C08F7571
:200120008F04C0B275B20075B1FFD0B2D08F22C08F758F04C0B275B20075B100D0B2D08F74
:2001400022C0E0C0D012011DC292120305759069F5B0C293A81112018212006AD0D0D0E02D
:2001600022C0E0C0D012011DD29212030543906D8512B0C293A81212018212006AD0D0D068
:20018000E022C0E0C0D0740D120585E81205A1740A120585D0D0D0E022C08F758F04C0B21B
:2001A00075B20175C8FF75C9FF75B20075C900D0B2D08F22C08F758F04C0B275B20143A062
:2001C0000F43A10F75B20053A1F0D0B2D08F22C08F758F04C0B275B20075B1FFD0B2D08F19
:2001E00022C08F758F04C0B275B200D287D28375B203D283D28775B20043860853867FD047
:20020000B2D08F22C08F758F04C0B275B200D283D287438680120305C287120305C28312F0
:200220000305D0B2D08F22C08F758F04C0B275B200438680C287120305D283120305D2874F
:2002400012030553867FD0B2D08F22C0E0C0F0C08F758F04C0B275B20075F0084386803300
:200260009287120305D283120305C283D5F0F053867F120305D283A287120305C283D0B211
:20028000D08FD0F0D0E022C08F758F04C0B275B200C0F0C0D075F00853867F120305D28309
:2002A000A28733120305C283D5F0F0438680C287120305D283120305C28353867FD0D0D0A6
:2002C000F0D0B2D08F22C08F758F04C0B275B200C0F0C0D075F00853867F120305D283A225
:2002E0008733120305C283D5F0F0438680D287120305D283120305C28353867FD0D0D0F008
:20030000D0B2D08F22C0E0C0D075E01AD5E0FDD0D0D0E022C0E0C0D0C0F075F03212032D5E
:20032000D5F0FAD5E0F4D0F0D0D0D0E022C0E0C0D075E064120305D5E0FAD0D0D0E022C03F
:20034000E0C0D0C0F01201E175F0FD1204E374101204DCD5E0FA743012049B1204DC74301E
:2003600012049B1204DC743012049B1204DC742012049B1204DC74281204851204DC740FB0
:200380001204851204DC74011204851204DC74061204851204DCD0F0D0D0D0E022C0E0C035
:2003A000D0B480005046B42000503CB40C077401120485803AB40107740F1204858030B474
:2003C0000207740E1204858026B40307740C120485801CB40D0774021204858012B40A0FA4
:2003E00074C0120485800812044B8003120485D0D0D0E022C0E0C0D0540F2430B43A0040A0
:2004000002240712044BD0D0D0E022C0E0C0D0C41203F4C41203F4D0D0D0E022C0E0C0D070
:20042000E58312040BE58212040BD0D0D0E022C0E0C0D0C083C082E493600712039DA3024F
:200440000437D082D083D0D0D0E022C0E0C0D012045BC412045BD0D0D0E022C0E0C0D0C012
:20046000F01204FCD2F0C2F154F0030353F0C342F01204E3D2F11204E3C2F11204E3D0F062
:20048000D0D0D0E022C0E0C0D012049B1204DCC412049B1204DCD0D0D0E022C0E0C0D0C04E
:2004A000F01204FCC2F0C2F154F0030353F0C342F01204E3D2F11204E3C2F11204E3D0F032
:2004C000D0D0D0E022744012048574009312044B20E703A380F474801204852212032D12CD
:2004E000032D22C0E0C0D0120204744012024BE5F012024B120227D0D0D0E022C0E0C0D03E
:20050000120204744112024B1202C6120227F5F0D0D0D0E022C0F01204FCC2F61204E3D000
:20052000F022C0F01204FCD2F61204E3D0F022C0F01204FCC2F71204E3D0F022C0F0120428
:20054000FCD2F71204E3D0F02208200800C0E0C08F758F04C0B2C0BF75BF0075B2025390A3
:20056000FD4390015391FE43910275B2005391FE43910275985075BE9B75BD11D0BFD0B294
:20058000D08FD0E022F5993099FDC29922C0E0C0D0540F12067D1205851205E6D0D0D0E048
:2005A00022C0E0C0D0C0E0C412058DD0E012058DD0D0D0E022C0E0C0D0E5831205A1E58264
:2005C0001205A1D0D0D0E022C0E0C0D0C082C083E49360091205851205E6A380F3D083D08A
:2005E00082D0D0D0E022C0E0C0D0109805D0D0D0E022E599B413F61098F380FB3098FDC2E0
:2006000098E599221205FC120670120687400EC4F81205FC120670120687400148227854AD
:200620001205FC547F120670B40D02F622B40813B85407740712058580E618900549120505
:20064000C880DD12066240EBB87E0280E6F60880E478547954E6B4200508B880F822F7091E
:2006600080F7B420004007B47F005002C322D322B47B005007B461004002942022B40A0018
:2006800040022407243022C394304010B40A00400A94074007B41000B34001C322E612061B
:2006A000872212069D4009C4F90812069D400149221206A2400AF583081206A24002F58276
:2006C00022C08F758F0475D10075CAB075CE0A75CC8075D10675CC01D08F22C08F758F04F8
:2006E00075D10675CB2075D1000000E5CB20E0FB75D102E5CB85CAF0D08F22C08F758F044E
:2007000075D10675CB1075D1000000E5CB20E0FB75D102E5CB85CAF0D08F22C0E0C0D0C0A4
:2007200070C071C072C073C074C075C076C077C078C079C07AC07BC07C757000757100757B
:200740007200757300757400757500757600757700757800757900757A00757B00757C20CA
:20076000EB13FBEA13FAE913F9E813F8502CEC2574F574ED3575F575EE3576F576EF357797
:20078000F577E5703578F578E5713579F579E572357AF57AE573357BF57BC3EC33FCED3321
:2007A000FDEE33FEEF33FFE57033F570E57133F571E57233F572E57333F573D57CA2A8742D
:2007C000A975AA76AB77AC78AD79AE7AAF7BD07CD07BD07AD079D078D077D076D075D07495
:2007E000D073D072D071D070D0D0D0E022C0E0C0D0C070C071C072C073C074C075C0767577
:200800007000757100757200757300757400757500757610E913F9E813F85016EA2572F521
:2008200072EB3573F573E5703574F574E5713575F575C3EA33FAEB33FBE57033F570E57144
:2008400033F571D576CEA872A973AA74AB75D076D075D074D073D072D071D070D0D0D0E04D
:2008600022C0E0C0D0C070C071C072C073C074C075C076C077C078C079C07AC07BC07C75F3
:200880007000757100757200757300757400757500757600757700757800757900757A00BF
:2008A000757B00757C20E833F8E933F9EA33FAEB33FBE57033F570E57133F571E57233F584
:2008C00072E57333F573C3E5709CF574E5719DF575E5729EF576E5739FF577400C857470C1
:2008E000857571857672857773B3E57833F578E57933F579E57A33F57AE57B33F57BD57CAD
:20090000A5AC78AD79AE7AAF7BA870A971AA72AB73D07CD07BD07AD079D078D077D076D05B
:2009200075D074D073D072D071D070D0D0D0E022C0E0C0D0C070C071C072C073C074C07527
:20094000C076757000757100757200757300757400757500757610E833F8E933F9E5703349
:20096000F570E57133F571C3E5709AF572E5719BF5734006857270857371B3E57433F574F3
:20098000E57533F575D576CFAA74AB75A870A971D076D075D074D073D072D071D070D0D061
:2009A000D0E022C0E0C0D0E82CF8E93DF9EA3EFAEB3FFB74003400FCD0D0D0E022C0E0C04D
:2009C000D0E82AF8E93BF974003400FAD0D0D0E022C0E0C0D0C3E89CF8E99DF9EA9EFAEBB1
:2009E0009FFB74009400FCD0D0D0E022C0E0C0D0C3E89AF8E99BF974009400FAD0D0D0E0AB
:200A000022C0E0C0D0C077C078C0797579057B007A0A120930E8C0E0EAF8EBF9D579EFD044
:200A2000E0FAD0E0C4F579D0E02579F9D0E0C4F579D0E02579F8D079D078D077D0D0D0E063
:200A400022C0D0C0F075F00A84C425F0D0F0D0D022C0F0C0E0C0D0E8540FC0E0E8C4540F0C
:200A600075F00AA4D0F025F0C0E0E954F0C4C0E0E9540F75F064A4A9F0F8D0E075F00AA450
:200A800075F064A428F8E935F0F9D0E028F8740039F9D0D0D0E0D0F022C0D0C0F0C070F5B5
:200AA0007053700F54F0C475F00AA42570D070D0F0D0D022C083C082C0D0C08FC0B2C0BF2D
:200AC000758F0475BF0143B70843B70453B6F743B60490F000A3E582458370F943B602E541
:200AE000B620E1FB30E0F5E5B7540F44A075BB98F5B753B7FB43B702E5B720E0FB53B7F74F
:180B000043B610D0BFD0B2D08FD0D0D082D08322438F0122538FFE2206
:00000001FF
