:2000000002000375817F12000C02000975B20012004122C0E0C0D0C21075C900D2B3D2B05A
:20002000C2B2C2B1E5C8D2B1D2B3F8120122F5105403B403EBF812012275C9FFD0D0D0E03F
:20004000221204ED7586FF75B1FFD2B2D2B0D2B1D280C2811202CDD281120013751100124D
:2000600000CF7511001200CF75124212010875111E1200CF7511001200CF75124312010895
:200080007511001200CF7511001200CF75124012010875111E1200CF7511001200CF75123D
:2000A000411201087512811201087511001200CF7511001200CF75122412010875129812FC
:2000C000010875117F1200CF7512C012010822C0E0C0D01200138511C8C2B300C2B2C2B09F
:2000E00000D2B2D2B0D0D0D0E022C0E0C0D012001375C900C2B3C2B1D2B0C2B2000085C8CA
:2001000011D2B2D0D0D0E022C0E0C0D01200138512C8D2B3C2B0C2B200D2B2D2B0D0D0D043
:20012000E022C0E0C0D0740D120525E8120541740A120525D0D0D0E022C08F758F04C0B29B
:2001400075B20175C8FF75C9FF75B20075C900D0B2D08F22C08F758F04C0B275B20143A0C2
:200160000F43A10F75B20053A1F0D0B2D08F22C08F758F04C0B275B20075B1FFD0B2D08F79
:2001800022C08F758F04C0B275B200D287D28375B203D283D28775B20043860853867FD0A7
:2001A000B2D08F22C08F758F04C0B275B200D283D2874386801202A5C2871202A5C2831213
:2001C00002A5D0B2D08F22C08F758F04C0B275B200438680C2871202A5D2831202A5D287D3
:2001E0001202A553867FD0B2D08F22C0E0C0F0C08F758F04C0B275B20075F00843868033C2
:2002000092871202A5D2831202A5C283D5F0F053867F1202A5D283A2871202A5C283D0B2F5
:20022000D08FD0F0D0E022C08F758F04C0B275B200C0F0C0D075F00853867F1202A5D283CA
:20024000A287331202A5C283D5F0F0438680C2871202A5D2831202A5C28353867FD0D0D029
:20026000F0D0B2D08F22C08F758F04C0B275B200C0F0C0D075F00853867F1202A5D283A2E6
:2002800087331202A5C283D5F0F0438680D2871202A5D2831202A5C28353867FD0D0D0F08B
:2002A000D0B2D08F22C0E0C0D075E01AD5E0FDD0D0D0E022C0E0C0D0C0F075F0321202CD20
:2002C000D5F0FAD5E0F4D0F0D0D0D0E022C0E0C0D075E0641202A5D5E0FAD0D0D0E022C001
:2002E000E0C0D0C0F012018175F0FD120483741012047CD5E0FA743012043B12047C74305F
:2003000012043B12047C743012043B12047C742012043B12047C742812042512047C740F10
:2003200012042512047C740112042512047C740612042512047CD0F0D0D0D0E022C0E0C0D5
:20034000D0B480005046B42000503CB40C077401120425803AB40107740F1204258030B494
:200360000207740E1204258026B40307740C120425801CB40D0774021204258012B40A0F24
:2003800074C012042580081203EB8003120425D0D0D0E022C0E0C0D0540F2430B43A004021
:2003A0000224071203EBD0D0D0E022C0E0C0D0C4120394C4120394D0D0D0E022C0E0C0D0F2
:2003C000E5831203ABE5821203ABD0D0D0E022C0E0C0D0C083C082E493600712033DA302D2
:2003E00003D7D082D083D0D0D0E022C0E0C0D01203FBC41203FBD0D0D0E022C0E0C0D0C096
:20040000F012049CD2F0C2F154F0030353F0C342F0120483D2F1120483C2F1120483D0F042
:20042000D0D0D0E022C0E0C0D012043B12047CC412043B12047CD0D0D0E022C0E0C0D0C02E
:20044000F012049CC2F0C2F154F0030353F0C342F0120483D2F1120483C2F1120483D0F012
:20046000D0D0D0E02274401204257400931203EB20E703A380F47480120425221202CD12AF
:2004800002CD22C0E0C0D01201A474401201EBE5F01201EB1201C7D0D0D0E022C0E0C0D083
:2004A0001201A474411201EB1202661201C7F5F0D0D0D0E022C0F012049CC2F6120483D0A4
:2004C000F022C0F012049CD2F6120483D0F022C0F012049CC2F7120483D0F022C0F0120409
:2004E0009CD2F7120483D0F02208200800C0E0C08F758F04C0B2C0BF75BF0075B2025390C4
:20050000FD4390015391FE43910275B2005391FE43910275985075BE9B75BD11D0BFD0B2F4
:20052000D08FD0E022F5993099FDC29922C0E0C0D0540F12061D120525120586D0D0D0E0C8
:2005400022C0E0C0D0C0E0C412052DD0E012052DD0D0D0E022C0E0C0D0E583120541E582E4
:20056000120541D0D0D0E022C0E0C0D0C082C083E4936009120525120586A380F3D083D00A
:2005800082D0D0D0E022C0E0C0D0109805D0D0D0E022E599B413F61098F380FB3098FDC240
:2005A00098E5992212059C120610120627400EC4F812059C1206101206274001482278544E
:2005C00012059C547F120610B40D02F622B40813B85407740712052580E6189004E91205E7
:2005E0006880DD12060240EBB87E0280E6F60880E478547954E6B4200508B880F822F7093F
:2006000080F7B420004007B47F005002C322D322B47B005007B461004002942022B40A0078
:2006200040022407243022C394304010B40A00400A94074007B41000B34001C322E612067B
:20064000272212063D4009C4F90812063D40014922120642400AF583081206424002F582B6
:2006600022C08F758F0475D10075CAB075CE0A75CC8075D10675CC01D08F22C08F758F0458
:2006800075D10675CB2075D1000000E5CB20E0FB75D102E5CB85CAF0D08F22C08F758F04AE
:2006A00075D10675CB1075D1000000E5CB20E0FB75D102E5CB85CAF0D08F22C0E0C0D0C005
:2006C00070C071C072C073C074C075C076C077C078C079C07AC07BC07C75700075710075DC
:2006E0007200757300757400757500757600757700757800757900757A00757B00757C202B
:20070000EB13FBEA13FAE913F9E813F8502CEC2574F574ED3575F575EE3576F576EF3577F7
:20072000F577E5703578F578E5713579F579E572357AF57AE573357BF57BC3EC33FCED3381
:20074000FDEE33FEEF33FFE57033F570E57133F571E57233F572E57333F573D57CA2A8748D
:20076000A975AA76AB77AC78AD79AE7AAF7BD07CD07BD07AD079D078D077D076D075D074F5
:20078000D073D072D071D070D0D0D0E022C0E0C0D0C070C071C072C073C074C075C07675D7
:2007A0007000757100757200757300757400757500757610E913F9E813F85016EA2572F582
:2007C00072EB3573F573E5703574F574E5713575F575C3EA33FAEB33FBE57033F570E571A5
:2007E00033F571D576CEA872A973AA74AB75D076D075D074D073D072D071D070D0D0D0E0AE
:2008000022C0E0C0D0C070C071C072C073C074C075C076C077C078C079C07AC07BC07C7553
:200820007000757100757200757300757400757500757600757700757800757900757A001F
:20084000757B00757C20E833F8E933F9EA33FAEB33FBE57033F570E57133F571E57233F5E4
:2008600072E57333F573C3E5709CF574E5719DF575E5729EF576E5739FF577400C85747021
:20088000857571857672857773B3E57833F578E57933F579E57A33F57AE57B33F57BD57C0D
:2008A000A5AC78AD79AE7AAF7BA870A971AA72AB73D07CD07BD07AD079D078D077D076D0BC
:2008C00075D074D073D072D071D070D0D0D0E022C0E0C0D0C070C071C072C073C074C07588
:2008E000C076757000757100757200757300757400757500757610E833F8E933F9E57033AA
:20090000F570E57133F571C3E5709AF572E5719BF5734006857270857371B3E57433F57453
:20092000E57533F575D576CFAA74AB75A870A971D076D075D074D073D072D071D070D0D0C1
:20094000D0E022C0E0C0D0E82CF8E93DF9EA3EFAEB3FFB74003400FCD0D0D0E022C0E0C0AD
:20096000D0E82AF8E93BF974003400FAD0D0D0E022C0E0C0D0C3E89CF8E99DF9EA9EFAEB11
:200980009FFB74009400FCD0D0D0E022C0E0C0D0C3E89AF8E99BF974009400FAD0D0D0E00B
:2009A00022C0E0C0D0C077C078C0797579057B007A0A1208D0E8C0E0EAF8EBF9D579EFD006
:2009C000E0FAD0E0C4F579D0E02579F9D0E0C4F579D0E02579F8D079D078D077D0D0D0E0C4
:2009E00022C0D0C0F075F00A84C425F0D0F0D0D022C0F0C0E0C0D0E8540FC0E0E8C4540F6D
:200A000075F00AA4D0F025F0C0E0E954F0C4C0E0E9540F75F064A4A9F0F8D0E075F00AA4B0
:200A200075F064A428F8E935F0F9D0E028F8740039F9D0D0D0E0D0F022C0D0C0F0C070F515
:200A40007053700F54F0C475F00AA42570D070D0F0D0D022C083C082C0D0C08FC0B2C0BF8D
:200A6000758F0475BF0143B70843B70453B6F743B60490F000A3E582458370F943B602E5A1
:200A8000B620E1FB30E0F5E5B7540F44A075BB98F5B753B7FB43B702E5B720E0FB53B7F7AF
:180AA00043B610D0BFD0B2D08FD0D0D082D08322438F0122538FFE2267
:00000001FF
