:2000000002000375817F12004D75128012155175129C12155175110012150475110012158F
:20002000047512241215517512B0121551900A55E493B4AA03020047F51112151BA30200ED
:20004000307512B21215511215D502004775B20012147E220000000000000000000000008D
:20006000000000000000000000000000000000000000000000000000000000000000000080
:20008000000000000000000000000000000000000000000000000000000000000000000060
:2000A000000000000000000000000000000000000000000000000000000000000000000040
:2000C000000000000000000000000000000000000000000000000000000000000000000020
:2000E000000000000000000000000000000000000000000000000000000000000000000000
:200100000000000000000000000000000000000000000000000000000000000000000000DF
:200120000000000000000000000000000000000000000000000000000000000000000000BF
:2001400000000000000000000000000000000000000000000000000000000000000000009F
:2001600000000000000000000000000000000000000000000000000000000000000000007F
:2001800000000000000000000000000000000000000000000000000000000000000000005F
:2001A00000000000000000000000000000000000000000000000000000000000000000003F
:2001C00000000000000000000000000000000000000000000000000000000000000000001F
:2001E0000000000000000000000000000000000000000000000000000000000000000000FF
:200200000000000000000000000000000000000000000000000000000000000000000000DE
:200220000000000000000000000000000000000000000000000000000000000000000000BE
:2002400000000000000000000000000000000000000000000000000000000000000000009E
:2002600000000000000000000000000000000000000000000000000000000000000000007E
:2002800000000000000000000000000000000000000000000000000000000000000000005E
:2002A00000000000000000000000000000000000000000000000000000000000000000003E
:2002C00000000000000000000000000000000000000000000000000000000000000000001E
:2002E0000000000000000000000000000000000000000000000000000000000000000000FE
:200300000000000000000000000000000000000000000000000000000000000000000000DD
:20032000000000000000000000000F3C000000001F300000000130000000000000000000F2
:2003400000010000000000000000000000073F3F00001F3C000000003F380000001F3E00E8
:200360001F3C000000000000000700000000073F2000000000073F3938001F3E00000000A1
:200380003F380000013E03201F3C000000000000001F00000000033F2000000000073F3032
:2003A00006000F3C000000003F380000033E00301F3C000000000000033F00000000033F25
:2003C0002000000000073F3003000730000000300F200000073E00001F3C0000000000004E
:2003E000073F00000000033F2000000000073F300120000000000120000000000F3F00004F
:200400001F3C000000000000073F00000000033F2000000000073F3000301F3C001F3F007A
:200420003F3800000F3F20001F3C000E00073E003F3F3C013F30033F213F200000073F30C7
:2004400000101F3C013C1F003F3800000F3F30001F3C003E000F0720073F00033C0C033F3E
:20046000273F300000073F3000081F3C033C1F203F3800000F3F38001F3C0120003E0330A5
:20048000073F000F3807033F3C3F380000073F3000081F3C073C1F303F3800000F3F3C0067
:2004A0001F3C0600013E0338073F000F3803033F303F380000073F3000041F3C0F3C1F3871
:2004C0003F3800000F3F3C001F3C0E00013E033C073F001F3801033F203F3C0000073F3043
:2004E00000041F3C0F3C1F383F380000073F3E001F3C1F00033E033C073F003F3800033F07
:20050000201F3C0000073F3000041F3C0F3C1F383F380000073F3F001F3C3F00073E033ECD
:20052000073F003F3800033F201F3C0000073F3000041F3C0F3C1F383F380000033F3F20B2
:200540001F3F3F20073E033E073F003F3800033F201F3C0000073F3000041F3C0F3C1F3867
:200560003F380000013F3F301F3F3F20073E033E073F013F3800033F201F3C0000073F3021
:2005800000041F3C0F3C1F303F393F3F003F3F301F3F3F30073F0F3F073F013F3800033F5D
:2005A000201F3C0000073F3000041F3C073C1F303F380000001F3F381F3D3F38073F3F3EB6
:2005C000073F013F3800033F201F3C0000073F30000C1F3C033C1F203F380000001F3F3838
:2005E0001F3D3F38073E0000073F013F3800033F201F3C0000073F3000081F3C033C3E0012
:200600003F380000000F3F381F3C3F3C073E0000073F003F3800033F201F3C0000073F30D2
:2006200000181F3C060F38003F38000000073F3C1F3C1F3C073E0000073F003F3800033F07
:20064000201F3C0000073F3000301F3C0E0000003F38000000033F381F3C1F3E033E000620
:20066000073F023F3800333F201F3C0000073F3000201F3C0F3F3F003F38000000013F3861
:200680001F3C0F3F033E000E073F021F3801233F203F3C0000073F3003001F3C0F3F3F2044
:2006A0003F38000008003F381F3C0F3F013E000C073F060F3803033F203F3C0000073F3067
:2006C00006001F3C0F3F3F203F3800000E003F301F3C073F203E0038033F2C0F3806073FE0
:2006E000203F3C0000073F3038001F3E073F3F203F38000003203F201F3C073F301F0320A3
:20070000013F3803381C073F203F3C0000073F3F20001F3E033F3F203F380000003F3E0092
:200720001F3C033F38073E00003F20013F30073F203F3C00000000000000000000000700E8
:20074000000000000007200000000000000000000000000000000000000000000000000072
:20076000000000000000000000000000000000000000000000000000000000000000000079
:20078000000000000000000000000000000000000000000000000000000000000000000059
:2007A000000000000000000000000000000000000000000000000000000000000000000039
:2007C000000000000000000000000000000000000000000000000000000000000000000019
:2007E0000000000000000000000000000000000000000000000000000000000000000000F9
:200800000000000000000000000000000000000000000000000000000000000000000000D8
:200820000000000000000000000000000000000000000000000000000000000000000000B8
:20084000000000000000000000000000000000000000000000000000000000000000000098
:20086000000000000000000000000000000000000000000000000000000000000000000078
:20088000000000000000000000000000000000000000000000000000000000000000000058
:2008A000000000000000000000000000000000000000000000000000000000000000000038
:2008C000000000000000000000000000000000000000000000000000000000000000000018
:2008E0000000000000000000000000000000000000000000000000000000000000000000F8
:200900000000000000000000000000000000000000000000000000000000000000000000D7
:200920000000000000000000000000000000000000000000000000000000000000000000B7
:20094000000000000000000000000000000000000000000000000000000000000000000097
:20096000000000000000000000000000000000000000000000000000000000000000000077
:20098000000000000000000000000000000000000000000000000000000000000000000057
:2009A000000000000000000000000000000000000000000000000000000000000000000037
:2009C000000000000000000000000000000000000000000000000000000000000000000017
:2009E0000000000000000000000000000000000000000000000000000000000000000000F7
:200A00000000000000000000000000000000000000000000000000000000000000000000D6
:200A20000000000000000000000000000000000000000000000000000000000000000000B6
:200A40000000000000000000000000000000000000000000AA3F3F3F3F3F3F3F3F3F3F3F37
:200A60003F3F3F3F3F3F3F3F3F3F3F3F3F3F3F3F3F3F3F3F3F3F3F3F3F3F3F3F3F3F3F3F96
:200A80003F3F3F3F3F3F3F3F3F3F3F3F3F3F3F3F3F3F3F3F3F3F3F3F3F3F3F3F3F3F3F3F76
:200AA0003F3F3F3F3F3F3F3F3F3F3F3F3F3F3F3F3F3F3F3F3F3F3F3F3F3F3F3F3F3F3F3F56
:200AC0003F3F3F3F3F3F3F3F3F3F3F3F3F3F3F3F3F3F3F3F3F3F3F3F3F3F3F3F3F3F3F3F36
:200AE0003F3F3F3F3F3F3F3F3F3F3F3F3F3F3F3F3F3F3F3F3F0F3F3F3F3F3F3F3F3F3F3F46
:200B00003F3F3F3F3F3F3F3F3F3F3F3F3F3F3F3F3F3F3F3F3F3F3F3F3F3F3F3F3C073F3F30
:200B20003F3F3F3F3F3F3F3F3F3F3F3F3F3F3F3F3F3F3F3F3F3F3F3F3F3F3F3F3F3F3F3FD5
:200B40003F3F3F3F3000073F3F3F3F3F3F3F3F3F3F3F3F3F3F3F3F3F3F3F3F3F3F3F3F3F3B
:200B60003F3F3F3F3F3F3F3F3F3F3F380000033F3F3F3F3F3F3F3F3F3F3F3F3F3F3F3F3F56
:200B80003F3F3F3F3F3F3F3F3F3F3F3F3F3F3F3F3F3F3F2000000F3F3F3F3F3F3F3F3F3F42
:200BA0003F3F3F3F3F3F3F3F3F3F3F3F3F3F3F3F3F3F3F3F3F3F3F3F3F3F3F3C0000003F15
:200BC0003F3F3F3F3F3F3F3F3F3F3F3F3F3F3F3F3F3F3F3F3F3F3F3F3F3F3F3F3F3F3F3F35
:200BE0003F3F3E0000000007201F3F3F3F3F3F3F3F3F3F3F3F3F3F3F3F3F3F3F3F3F3F21A7
:200C00003F3F3F3F3F3F3F3F3C03380000000004000F3F3F3F3F3F3F3F3F3F3F3F3F3F3FE0
:200C20003F3F3F3F3F3F3F383F3F3F3F3F3F3F3F380008000000000000013F3F3F3F3F3F10
:200C40003F3F3F3F3F3F3F3F3F3F3F3F3F3C1F243F3F3F3F3F3F3F3F0000000000000000EA
:200C6000000007233F3F3F3F3F3F3F3F3F3F3F3F3F3F3F3F3F3F02073F3F3F3F3F3F213008
:200C80000000000000380000000000003F3F3F3F3F3F3F3F3F3F3F3F3F3F3F3F3F3F301F5F
:200CA0003F3F3F3F3F3F0020000000000E0B20003F30000000173F3F3F3F3F3F3F3F3F3F65
:200CC0003F3F3F3F3F3E0C0F3F3F3F3F32000000073E000325000F2512380000073F3F3FA3
:200CE0003F3F3F3F3F3F3F3F3F3F3F3F3F3C1E073F3F3F3F3F3000000E150B3C02150A2545
:200D00001020000010173F000C0F3F3F3F3F3F3F2003000F3F3333233F3F3F3F3000000082
:200D200002050A25120A25120000000430102100000F3F3F3F3F3F3F2000001F3F27073B55
:200D40003F3F3D02000110000000050A250A3F322C0F301F301F3F00000F380F380F3F3FE3
:200D60002000000F3C001F3F3F3F3F3F3F2F3C07380A373E25153F3D123F3F3C001F3F3D29
:200D80003C0F380F380F3F3F203F380F38093F3F3F3F3F3F3F3F3F3F3E150F3F123F3F3F2F
:200DA0003F3F3F3C013F3F013C0F380C00003F3F203F380C0B2C180101203E0700040F3F02
:200DC0003F3F3F3F3F3F3F3F3F3F3F3C013F3F013C0F3F3C00003F3F203F380C0120180082
:200DE00001203C0700000F3F3F3F3F3F3F3F3F3F3F3F3F3F301803000000180C00003F3F60
:200E00002C00003C0000180001203C0700000F3F3F3F3F3F3F3F3F3F3F3F3F3F3018030061
:200E20000000180F380F3F3F2400000C07301E0F01203C0703380F3F3F3F3F3F3F3F3F3F4D
:200E40003F3F3F3F301F3F013F30180F380F3F3F203C033C0730180F01203C0720000F3FE1
:200E60003F3F3F3F3F3F3F3F3F3F3F3F301F3F013F30181F380F3F3F203E073C0730180F85
:200E800005203C0700000F3F3F3F3F3F3F3F3F3C073F3F3F303F3F213F30180F380F3F3FB9
:200EA000203E073C0730180F0F203C07033F3F3F3F3F3F3F3F3F3F38033F3F3F301F3F20A2
:200EC0000000380F38003F3F203E000C000018000120000700000F3F3F3F3F3F3F3F3F3034
:200EE000313F3F3F301F3F000001380F38003F3F203E200C000018000120011700000F3F4F
:200F00003F073F3F3F3F3F38333F3F3F301F3F001C08180F38083F3F203E090C0600180000
:200F20000120062700300F3F3C153F3F3F3F203B0B3E0B3F3F3F3F3F3F3F3F3F3F3F3F3FB6
:200F40003F3F3F3F3F3F3F3F013F3F3F3F3F3F3F3C0E3F3F3F3F2F393B3E1F3F3F3F3F3F5E
:200F60003F3F3F3F3F3F3F3F3F3F3F3F3F3F3800013F3F3F3F3F3F3F281F373F3F3F2F3F64
:200F80003F3E1F3F3F3F3F3F3F3F3F3F3F3F3F3F3F3F3F3F3F3F3801013F3F3F3F3F3F3E16
:200FA000101D3B3F3F3F2F00000E1F3F3F3C3F3F3F3F3F3F3F3F3F3F3F3F3F3F3F3F3F3F88
:200FC0003F3F3F3F3F3F3F380F3F3A3F3F3F3F3F3F3F3F3F3F311F3F3F3F3F3F3F3F3F3F9B
:200FE0003F3F3F3F3F3F3F3F3F3F3F3F3F3F3F30153B3F073F3F073F3F3C0F3F3F2D373F0B
:201000003F3F3F3F3F3F3F3F3F3F3F3F3F3F3F3F3F3F3F3F3F3F3C0E0F3F3F3F3F3E0130A2
:201020000138073F3F122F3F3F3F3F3F3F3F3F3F3F3F3F3F3F3F3F3F3F3F3F3F3F3F3F3F8A
:201040003F3F3F3F3F3F3F2B0A1F3F3F32032F1F3F3F3F3F3F3F3F3F3F3F3F3F3F3F3F3F92
:201060003F3F3F3F3F3F3F3F3F3F3F3F3F3E01290A18073F242F3F3F3F3F3F3F3F3F3F3FA4
:201080003F3F3F3F3F3F3F3F3F3F3F3F3F3F3F3F3F3F3F3F3F3E01293A18073E022F1F389E
:2010A0003F3F3F3F3F3F3F3F3F3F3F3F3F3F3F3F3F3F3F3F3F3F3F3F3F3F3F3F3F3E0128A6
:2010C0000218073C1D1E2F3F3F3F3F3F3F3F3F3F3F3F3F3F3F3F3F3F3F0F3F3F2F3F3F3F62
:2010E0003F3F3F3F3F322E183326353F3F3F3F3F3F3F3F3F3F3F3F3F3F3F3F3F3F3F3F3F84
:201100003D0B3F3E253F3F343F3F3F3F3F3004000004013F3F3F3F3F3F3F3F3F3F3F3F3F8C
:201120003F3F3F3F3F3F3F3F3A153F3D123F3F2A1F3F3F3F3F300720001C013F383F0738AE
:201140001F233F3F3F3F3F3F3F3F3F3F3F3F3F3F3F373F3F333F3F172F3F3F033C380027D4
:201160003C10033F201E01300E013F3F3F3F3F3F3F3F3F3F3F3F3F3F3D0B3C0E2D3E0F00E5
:201180000F3F3E013039142000150B3E201203100B012F3F3F3F3F3F3F3F3F3F3F3F3F3F14
:2011A0003C32180E110C07042F3F3A011838002F3E10033C12211409102A073F3F3F3F3FF2
:2011C0003F3F3F3F3F3F3F3F3E120907110827000F3F210A053F322F3E1C3F380F0038073A
:2011E000201C033F3F3F3F3F3F3F3F3F3F3F3F3F3D320906310827000A17003C0338002FD8
:201200003E10033807003807201C033F3F3F3F3F3F3F3F3F3F3F3F2E1F3F3F3F3F3F3F0AFB
:201220000F3F003C0339142F3E150B20020010010008013F3F3F3F3F3F3F3F3F3F3F3F1007
:201240002F30000730000720080600080130002F3E10013E3F333F1F3B3F0F3F3F3F3F3F3A
:201260003F3F3F3F3F3F3F2C1F370D27332E370E02173B3F1F2000280210003E3F333F1F3F
:201280003B3F0F3F3F3F3F3F3F3F3F3F3F3F3F2C1F3700073320070E08073B3F1F00000038
:2012A0000000000000000000000000000000000C1F3F0600000000000000000000000000BE
:2012C0000000000000000001000000200000100000080000080000041F3F04000001000066
:2012E0000100000020000010000008000000000000000000000000000000000000000004B1
:201300001001040000000000000000000000000000000000000000000000000000000000B8
:2013200000000000000000041417040000000000000000000000000000000000000C183026
:20134000060C38030E1803260C01230E003127041F3F041C31200C1830060C38030E1803BE
:20136000260C0123061F3F380F3F3C0F3F3C073F3E033F3F013F3F253F3F043F3F301F3F30
:20138000380F3F3C0F3F3C073F3E033F3F30380F383C073C1E073C0E033E07013F07203C74
:2013A0001F3F0F21301F30380F383C073C1E073C0E033E070120100330080130080038048A
:2013C000003C02001E01000C110F070020072010033008013008003804003C020000000137
:2013E000000800200000100002180000080100041001060000130000030008002000001029
:201400000000180000000004000002000001000001000000200000141F3F0400000800000E
:20142000040000020000010000010000000000120000190000082000042000021000030C0C
:201440001F3F04000024000012000019000008200004200002AAC0E0C0D0C21075C900D2D1
:20146000B3D2B0C2B1E5C8D2B1D2B3F5105403B403F1F812156775C9FFD0D0D0E0221219AB
:20148000BE7586FF75B1FFC2B2D2B0D2B1D280C28112179ED281121456C217C21875128011
:2014A00012155175110012150475110012150475124212155175112812150475110012158B
:2014C0000475124312155175110012150475110A12150475124012155175112812150475CD
:2014E0001100121504751241121551751100121504751100121504751224121551751290D4
:2015000012155122C0E0C0D01214568511C8C2B300C2B000D2B0D0D0D0E022C0E0C0D0120A
:201520001456E5105404B404F68511C8C2B300C2B000D2B0D0D0D0E022C0E0C0D012145661
:2015400075C900C2B3C2B1000085C811D0D0D0E022C0E0C0D01214568512C8D2B3C2B00093
:20156000D2B0D0D0D0E022C0E0C0D0740D1219F6E8121A12740A1219F6D0D0D0E022C0E0CE
:20158000C0D07515FF75160F75128012155175129C1215517512B012155175110012151B07
:2015A000D515F77515FFD516F17512B2121551751100121504751100121504751224121500
:2015C00051D0E0D0D022C0E0C0D075A10085A013D0D0D0D022C0E0C0D020A20578011215D1
:2015E0006720A705780212156730A41030A30878041215671215FC7805121567D0D0D0E069
:2016000022C0E0C0D0D0D0D0E022C08F758F04C0B275B20175C8FF75C9FF75B20075C90037
:20162000D0B2D08F22C08F758F04C0B275B20143A00F43A10F75B20053A1F0D0B2D08F22C3
:20164000C08F758F04C0B275B20075B1FFD0B2D08F22C08F758F04C0B275B200D287D283D4
:2016600075B203D283D28775B20043860853867FD0B2D08F22C08F758F04C0B275B200D27D
:2016800083D287438680121776C287121776C283121776D0B2D08F22C08F758F04C0B27579
:2016A000B200438680C287121776D283121776D28712177653867FD0B2D08F22C0E0C0F0B0
:2016C000C08F758F04C0B275B20075F008438680339287121776D283121776C283D5F0F08B
:2016E00053867F121776D283A287121776C283D0B2D08FD0F0D0E022C08F758F04C0B275E0
:20170000B200C0F0C0D075F00853867F121776D283A28733121776C283D5F0F0438680C21E
:2017200087121776D283121776C28353867FD0D0D0F0D0B2D08F22C08F758F04C0B275B29F
:2017400000C0F0C0D075F00853867F121776D283A28733121776C283D5F0F0438680D287F9
:20176000121776D283121776C28353867FD0D0D0F0D0B2D08F22C0E0C0D075E01AD5E0FD85
:20178000D0D0D0E022C0E0C0D0C0F075F03212179ED5F0FAD5E0F4D0F0D0D0D0E022C0E05F
:2017A000C0D075E064121776D5E0FAD0D0D0E022C0E0C0D0C0F012165275F0FD1219547471
:2017C0001012194DD5E0FA743012190C12194D743012190C12194D743012190C12194D7465
:2017E0002012190C12194D74281218F612194D740F1218F612194D74011218F612194D744A
:20180000061218F612194DD0F0D0D0D0E022C0E0C0D0B480005046B42000503CB40C077463
:20182000011218F6803AB40107740F1218F68030B40207740E1218F68026B40307740C1269
:2018400018F6801CB40D0774021218F68012B40A0F74C01218F680081218BC80031218F6BC
:20186000D0D0D0E022C0E0C0D0540F2430B43A00400224071218BCD0D0D0E022C0E0C0D02C
:20188000C4121865C4121865D0D0D0E022C0E0C0D0E58312187CE58212187CD0D0D0E02273
:2018A000C0E0C0D0C083C082E493600712180EA30218A8D082D083D0D0D0E022C0E0C0D0B1
:2018C0001218CCC41218CCD0D0D0E022C0E0C0D0C0F012196DD2F0C2F154F0030353F0C3A9
:2018E00042F0121954D2F1121954C2F1121954D0F0D0D0D0E022C0E0C0D012190C12194DB2
:20190000C412190C12194DD0D0D0E022C0E0C0D0C0F012196DC2F0C2F154F0030353F0C3B5
:2019200042F0121954D2F1121954C2F1121954D0F0D0D0D0E02274401218F674009312184B
:20194000BC20E703A380F474801218F62212179E12179E22C0E0C0D012167574401216BC5F
:20196000E5F01216BC121698D0D0D0E022C0E0C0D012167574411216BC121737121698F501
:20198000F0D0D0D0E022C0F012196DC2F6121954D0F022C0F012196DD2F6121954D0F02213
:2019A000C0F012196DC2F7121954D0F022C0F012196DD2F7121954D0F02208200800C0E083
:2019C000C08F758F04C0B2C0BF75BF0075B2025390FD4390015391FE43910275B2005391EB
:2019E000FE43910275985075BE9B75BD11D0BFD0B2D08FD0E022F5993099FDC29922C0E0F2
:201A0000C0D0540F121AEE1219F6121A57D0D0D0E022C0E0C0D0C0E0C41219FED0E012190B
:201A2000FED0D0D0E022C0E0C0D0E583121A12E582121A12D0D0D0E022C0E0C0D0C082C017
:201A400083E49360091219F6121A57A380F3D083D082D0D0D0E022C0E0C0D0109805D0D0D5
:201A6000D0E022E599B413F61098F380FB3098FDC298E59922121A6D121AE1121AF8400E6C
:201A8000C4F8121A6D121AE1121AF8400148227854121A6D547F121AE1B40D02F622B40839
:201AA00013B8540774071219F680E6189019BA121A3980DD121AD340EBB87E0280E6F608FB
:201AC00080E478547954E6B4200508B880F822F70980F7B420004007B47F005002C322D321
:201AE00022B47B005007B461004002942022B40A0040022407243022C394304010B40A00DB
:201B0000400A94074007B41000B34001C322E6121AF822121B0E4009C4F908121B0E40010B
:201B20004922121B13400AF58308121B134002F58222C08F758F0475D10075CAB075CE0A3C
:201B400075CC8075D10675CC01D08F22C08F758F0475D10675CB2075D1000000E5CB20E0BC
:201B6000FB75D102E5CB85CAF0D08F22C08F758F0475D10675CB1075D1000000E5CB20E0C9
:201B8000FB75D102E5CB85CAF0D08F22C0E0C0D0C070C071C072C073C074C075C076C077C6
:201BA000C078C079C07AC07BC07C7570007571007572007573007574007575007576007536
:201BC0007700757800757900757A00757B00757C20EB13FBEA13FAE913F9E813F8502CEC83
:201BE0002574F574ED3575F575EE3576F576EF3577F577E5703578F578E5713579F579E511
:201C000072357AF57AE573357BF57BC3EC33FCED33FDEE33FEEF33FFE57033F570E571330B
:201C2000F571E57233F572E57333F573D57CA2A874A975AA76AB77AC78AD79AE7AAF7BD07F
:201C40007CD07BD07AD079D078D077D076D075D074D073D072D071D070D0D0D0E022C0E0B4
:201C6000C0D0C070C071C072C073C074C075C0767570007571007572007573007574007577
:201C80007500757610E913F9E813F85016EA2572F572EB3573F573E5703574F574E57135B1
:201CA00075F575C3EA33FAEB33FBE57033F570E57133F571D576CEA872A973AA74AB75D019
:201CC00076D075D074D073D072D071D070D0D0D0E022C0E0C0D0C070C071C072C073C07463
:201CE000C075C076C077C078C079C07AC07BC07C7570007571007572007573007574007528
:201D00007500757600757700757800757900757A00757B00757C20E833F8E933F9EA33FA6D
:201D2000EB33FBE57033F570E57133F571E57233F572E57333F573C3E5709CF574E5719DBA
:201D4000F575E5729EF576E5739FF577400C857470857571857672857773B3E57833F578AA
:201D6000E57933F579E57A33F57AE57B33F57BD57CA5AC78AD79AE7AAF7BA870A971AA7280
:201D8000AB73D07CD07BD07AD079D078D077D076D075D074D073D072D071D070D0D0D0E047
:201DA00022C0E0C0D0C070C071C072C073C074C075C076757000757100757200757300755D
:201DC0007400757500757610E833F8E933F9E57033F570E57133F571C3E5709AF572E57137
:201DE0009BF5734006857270857371B3E57433F574E57533F575D576CFAA74AB75A870A912
:201E000071D076D075D074D073D072D071D070D0D0D0E022C0E0C0D0E82CF8E93DF9EA3E87
:201E2000FAEB3FFB74003400FCD0D0D0E022C0E0C0D0E82AF8E93BF974003400FAD0D0D004
:201E4000E022C0E0C0D0C3E89CF8E99DF9EA9EFAEB9FFB74009400FCD0D0D0E022C0E0C0B5
:201E6000D0C3E89AF8E99BF974009400FAD0D0D0E022C0E0C0D0C077C078C0797579057B1E
:201E8000007A0A121DA1E8C0E0EAF8EBF9D579EFD0E0FAD0E0C4F579D0E02579F9D0E0C41C
:201EA000F579D0E02579F8D079D078D077D0D0D0E022C0D0C0F075F00A84C425F0D0F0D088
:201EC000D022C0F0C0E0C0D0E8540FC0E0E8C4540F75F00AA4D0F025F0C0E0E954F0C4C0FD
:201EE000E0E9540F75F064A4A9F0F8D0E075F00AA475F064A428F8E935F0F9D0E028F8741D
:201F00000039F9D0D0D0E0D0F022C0D0C0F0C070F57053700F54F0C475F00AA42570D070C6
:201F2000D0F0D0D022C083C082C0D0C08FC0B2C0BF758F0475BF0143B70843B70453B6F78D
:201F400043B60490F000A3E582458370F943B602E5B620E1FB30E0F5E5B7540F44A075BB1F
:201F600098F5B753B7FB43B702E5B720E0FB53B7F743B610D0BFD0B2D08FD0D0D082D083C6
:091F800022438F0122538FFE223F
:00000001FF
