:2000000002000375817F1200187511FF12010C7512C012013B02000975B20012008A120023
:200020002222C0E0C0D07514FF75150875128212013B75110012010C7512C012013BD514B8
:20004000F17514FFD515EB75110012010C75110012010C75122412013BD0E0D0D022C0E0FD
:20006000C0D0C21075C900D2B3D2B0C2B1E5C8D2B1D2B3F8120151F5105403B403EDF8124B
:20008000015175C9FFD0D0D0E02212051C7586FF75B1FFC2B2D2B0D2B1D280C2811202FCEF
:2000A000D28112005E75128212013B75110012010C75110012010C75124212013B75111E21
:2000C00012010C75110012010C75124312013B75110712010C75118012010C751240120199
:2000E0003B75112812010C75110012010C75124112013B75110012010C75110012010C757E
:20010000122412013B75129812013B22C0E0C0D012005E8511C8C2B300C2B000D2B0D0D0C5
:20012000D0E022C0E0C0D012005E75C900C2B3C2B1000085C811D0D0D0E022C0E0C0D01215
:20014000005E8512C8D2B3C2B000D2B0D0D0D0E022C0E0C0D0740D120554E8120570740AEE
:20016000120554D0D0D0E022C08F758F04C0B275B20175C8FF75C9FF75B20075C900D0B251
:20018000D08F22C08F758F04C0B275B20143A00F43A10F75B20053A1F0D0B2D08F22C08FAB
:2001A000758F04C0B275B20075B1FFD0B2D08F22C08F758F04C0B275B200D287D28375B2B1
:2001C00003D283D28775B20043860853867FD0B2D08F22C08F758F04C0B275B200D283D204
:2001E000874386801202D4C2871202D4C2831202D4D0B2D08F22C08F758F04C0B275B200F6
:20020000438680C2871202D4D2831202D4D2871202D453867FD0B2D08F22C0E0C0F0C08FEC
:20022000758F04C0B275B20075F0084386803392871202D4D2831202D4C283D5F0F0538623
:200240007F1202D4D283A2871202D4C283D0B2D08FD0F0D0E022C08F758F04C0B275B20029
:20026000C0F0C0D075F00853867F1202D4D283A287331202D4C283D5F0F0438680C287125A
:2002800002D4D2831202D4C28353867FD0D0D0F0D0B2D08F22C08F758F04C0B275B200C09B
:2002A000F0C0D075F00853867F1202D4D283A287331202D4C283D5F0F0438680D2871202C8
:2002C000D4D2831202D4C28353867FD0D0D0F0D0B2D08F22C0E0C0D075E01AD5E0FDD0D01C
:2002E000D0E022C0E0C0D0C0F075F0321202FCD5F0FAD5E0F4D0F0D0D0D0E022C0E0C0D0DB
:2003000075E0641202D4D5E0FAD0D0D0E022C0E0C0D0C0F01201B075F0FD1204B2741012B8
:2003200004ABD5E0FA743012046A1204AB743012046A1204AB743012046A1204AB7420120A
:20034000046A1204AB74281204541204AB740F1204541204AB74011204541204AB740612CD
:2003600004541204ABD0F0D0D0D0E022C0E0C0D0B480005046B42000503CB40C077401128A
:200380000454803AB40107740F1204548030B40207740E1204548026B40307740C120454FB
:2003A000801CB40D0774021204548012B40A0F74C0120454800812041A8003120454D0D0B7
:2003C000D0E022C0E0C0D0540F2430B43A004002240712041AD0D0D0E022C0E0C0D0C41261
:2003E00003C3C41203C3D0D0D0E022C0E0C0D0E5831203DAE5821203DAD0D0D0E022C0E03A
:20040000C0D0C083C082E493600712036CA3020406D082D083D0D0D0E022C0E0C0D012045C
:200420002AC412042AD0D0D0E022C0E0C0D0C0F01204CBD2F0C2F154F0030353F0C342F064
:200440001204B2D2F11204B2C2F11204B2D0F0D0D0D0E022C0E0C0D012046A1204ABC41255
:20046000046A1204ABD0D0D0E022C0E0C0D0C0F01204CBC2F0C2F154F0030353F0C342F033
:200480001204B2D2F11204B2C2F11204B2D0F0D0D0D0E022744012045474009312041A20E7
:2004A000E703A380F47480120454221202FC1202FC22C0E0C0D01201D3744012021AE5F0AC
:2004C00012021A1201F6D0D0D0E022C0E0C0D01201D3744112021A1202951201F6F5F0D013
:2004E000D0D0E022C0F01204CBC2F61204B2D0F022C0F01204CBD2F61204B2D0F022C0F0B4
:200500001204CBC2F71204B2D0F022C0F01204CBD2F71204B2D0F02208200800C0E0C08F74
:20052000758F04C0B2C0BF75BF0075B2025390FD4390015391FE43910275B2005391FE43AD
:20054000910275985075BE9B75BD11D0BFD0B2D08FD0E022F5993099FDC29922C0E0C0D057
:20056000540F12064C1205541205B5D0D0D0E022C0E0C0D0C0E0C412055CD0E012055CD011
:20058000D0D0E022C0E0C0D0E583120570E582120570D0D0D0E022C0E0C0D0C082C083E4A1
:2005A0009360091205541205B5A380F3D083D082D0D0D0E022C0E0C0D0109805D0D0D0E0AE
:2005C00022E599B413F61098F380FB3098FDC298E599221205CB12063F120656400EC4F838
:2005E0001205CB12063F1206564001482278541205CB547F12063FB40D02F622B40813B86F
:200600005407740712055480E61890051812059780DD12063140EBB87E0280E6F60880E4EF
:2006200078547954E6B4200508B880F822F70980F7B420004007B47F005002C322D322B463
:200640007B005007B461004002942022B40A0040022407243022C394304010B40A00400A1B
:2006600094074007B41000B34001C322E61206562212066C4009C4F90812066C40014922C3
:20068000120671400AF583081206714002F58222C08F758F0475D10075CAB075CE0A75CC89
:2006A0008075D10675CC01D08F22C08F758F0475D10675CB2075D1000000E5CB20E0FB7542
:2006C000D102E5CB85CAF0D08F22C08F758F0475D10675CB1075D1000000E5CB20E0FB757E
:2006E000D102E5CB85CAF0D08F22C0E0C0D0C070C071C072C073C074C075C076C077C078B3
:20070000C079C07AC07BC07C757000757100757200757300757400757500757600757700AB
:20072000757800757900757A00757B00757C20EB13FBEA13FAE913F9E813F8502CEC257415
:20074000F574ED3575F575EE3576F576EF3577F577E5703578F578E5713579F579E57235B7
:200760007AF57AE573357BF57BC3EC33FCED33FDEE33FEEF33FFE57033F570E57133F57101
:20078000E57233F572E57333F573D57CA2A874A975AA76AB77AC78AD79AE7AAF7BD07CD04E
:2007A0007BD07AD079D078D077D076D075D074D073D072D071D070D0D0D0E022C0E0C0D025
:2007C000C070C071C072C073C074C075C07675700075710075720075730075740075750047
:2007E000757610E913F9E813F85016EA2572F572EB3573F573E5703574F574E5713575F571
:2008000075C3EA33FAEB33FBE57033F570E57133F571D576CEA872A973AA74AB75D076D0F1
:2008200075D074D073D072D071D070D0D0D0E022C0E0C0D0C070C071C072C073C074C07528
:20084000C076C077C078C079C07AC07BC07C7570007571007572007573007574007575009C
:20086000757600757700757800757900757A00757B00757C20E833F8E933F9EA33FAEB3379
:20088000FBE57033F570E57133F571E57233F572E57333F573C3E5709CF574E5719DF57523
:2008A000E5729EF576E5739FF577400C857470857571857672857773B3E57833F578E5796B
:2008C00033F579E57A33F57AE57B33F57BD57CA5AC78AD79AE7AAF7BA870A971AA72AB7375
:2008E000D07CD07BD07AD079D078D077D076D075D074D073D072D071D070D0D0D0E022C038
:20090000E0C0D0C070C071C072C073C074C075C0767570007571007572007573007574007F
:20092000757500757610E833F8E933F9E57033F570E57133F571C3E5709AF572E5719BF5CF
:20094000734006857270857371B3E57433F574E57533F575D576CFAA74AB75A870A971D015
:2009600076D075D074D073D072D071D070D0D0D0E022C0E0C0D0E82CF8E93DF9EA3EFAEB98
:200980003FFB74003400FCD0D0D0E022C0E0C0D0E82AF8E93BF974003400FAD0D0D0E0229C
:2009A000C0E0C0D0C3E89CF8E99DF9EA9EFAEB9FFB74009400FCD0D0D0E022C0E0C0D0C3D9
:2009C000E89AF8E99BF974009400FAD0D0D0E022C0E0C0D0C077C078C0797579057B007AEC
:2009E0000A1208FFE8C0E0EAF8EBF9D579EFD0E0FAD0E0C4F579D0E02579F9D0E0C4F57994
:200A0000D0E02579F8D079D078D077D0D0D0E022C0D0C0F075F00A84C425F0D0F0D0D022B8
:200A2000C0F0C0E0C0D0E8540FC0E0E8C4540F75F00AA4D0F025F0C0E0E954F0C4C0E0E9DA
:200A4000540F75F064A4A9F0F8D0E075F00AA475F064A428F8E935F0F9D0E028F874003961
:200A6000F9D0D0D0E0D0F022C0D0C0F0C070F57053700F54F0C475F00AA42570D070D0F0F4
:200A8000D0D022C083C082C0D0C08FC0B2C0BF758F0475BF0143B70843B70453B6F743B609
:200AA0000490F000A3E582458370F943B602E5B620E1FB30E0F5E5B7540F44A075BB98F540
:200AC000B753B7FB43B702E5B720E0FB53B7F743B610D0BFD0B2D08FD0D0D082D0832243A3
:070AE0008F0122538FFE225B
:00000001FF
