:2000000002000375817F12002775140090002E740093B4800302000CF5111202157512C024
:200020001202440902000F75B20012019322FFFFFFFFFFFFFFFFFFFFFFFFFFFFFFFFFFFF71
:20004000FFFFFFFFFFFFFCFFCFFFFFFFFFFFFFFFFFFFFFFFFFFFFFFFFFFFFFFFFFFFF1F30D
:20006000E3FFFFFFFFFFFFFFFFFFFFFFFFFFFFFFFFFFFFFFFFFFC1E1E0FFFFFFFFFFFFFF37
:20008000FFFFFFFFFFFFFFFFFFFFFFFFFFFF80E1C07FFFFFFFFFFFFFFFFFFFFFFFFFFFFFDC
:2000A000FFFFFFFFFFFF8000007FFFFFFFFFFFFFFFFFFFFFFFFFFFFFFFFFFFFFFFFF00005B
:2000C000003FFFFFFFFFFFFFFFFFFFFFFFFFFFFFFFFFFFFFFFFF0000003FFFFFFFFFFFFFBC
:2000E000FFFFFFFFFFFFFFFFFFFFFFFFFFFF8000007FFFFFFFFFFFFFFFFFFFFFFFFFFFFF1D
:20010000FFFFFFFFFFFF8621187FFFFFFFFFFFFFFFFFFFFFFFFFFFFFFFFFFFFFFFFFCFF3F9
:20012000FCFFFFFFFFFFFFFFFFFFFFFFFFFFFFFFFFFFFFFFFFFFE7F3F9FFFFFFFFFFFFFF0C
:20014000FFFFFFFFFFFFFFFFFFFFFFFFFFFFFFFFFFFFFFFFFFFFFFFFFFFFFFFFFFFFFFFFBF
:20016000FFFFFFFFFFFF08C0E0C0D0C21075C900D2B3D2B0C2B1E5C8D2B1D2B3F812025AA8
:20018000F5105403B403EDF812025A75C9FFD0D0D0E0221206257586FF75B1FFC2B2D2B0F8
:2001A000D2B1D280C281120405D28112016775128212024475110012021575110012021580
:2001C00075124212024475111E12021575110012021575124312024475110012021575112B
:2001E000001202157512401202447511281202157511001202157512411202447511001279
:20020000021575110012021575122412024475129F12024422C0E0C0D01201678511C8C2AB
:20022000B300C2B000D2B0D0D0D0E022C0E0C0D012016775C900C2B3C2B1000085C811D0A7
:20024000D0D0E022C0E0C0D01201678512C8D2B3C2B000D2B0D0D0D0E022C0E0C0D0740D57
:2002600012065DE8120679740A12065DD0D0D0E022C08F758F04C0B275B20175C8FF75C9C0
:20028000FF75B20075C900D0B2D08F22C08F758F04C0B275B20143A00F43A10F75B20053A7
:2002A000A1F0D0B2D08F22C08F758F04C0B275B20075B1FFD0B2D08F22C08F758F04C0B2C9
:2002C00075B200D287D28375B203D283D28775B20043860853867FD0B2D08F22C08F758FCB
:2002E00004C0B275B200D283D2874386801203DDC2871203DDC2831203DDD0B2D08F22C043
:200300008F758F04C0B275B200438680C2871203DDD2831203DDD2871203DD53867FD0B2BD
:20032000D08F22C0E0C0F0C08F758F04C0B275B20075F0084386803392871203DDD28312A1
:2003400003DDC283D5F0F053867F1203DDD283A2871203DDC283D0B2D08FD0F0D0E022C091
:200360008F758F04C0B275B200C0F0C0D075F00853867F1203DDD283A287331203DDC2836E
:20038000D5F0F0438680C2871203DDD2831203DDC28353867FD0D0D0F0D0B2D08F22C08F8E
:2003A000758F04C0B275B200C0F0C0D075F00853867F1203DDD283A287331203DDC283D5E8
:2003C000F0F0438680D2871203DDD2831203DDC28353867FD0D0D0F0D0B2D08F22C0E0C002
:2003E000D075E01AD5E0FDD0D0D0E022C0E0C0D0C0F075F032120405D5F0FAD5E0F4D0F0E0
:20040000D0D0D0E022C0E0C0D075E0641203DDD5E0FAD0D0D0E022C0E0C0D0C0F01202B9C1
:2004200075F0FD1205BB74101205B4D5E0FA74301205731205B474301205731205B47430F4
:200440001205731205B474201205731205B4742812055D1205B4740F12055D1205B474014C
:2004600012055D1205B4740612055D1205B4D0F0D0D0D0E022C0E0C0D0B480005046B42084
:2004800000503CB40C07740112055D803AB40107740F12055D8030B40207740E12055D80D0
:2004A00026B40307740C12055D801CB40D07740212055D8012B40A0F74C012055D80081275
:2004C0000523800312055DD0D0D0E022C0E0C0D0540F2430B43A0040022407120523D0D06F
:2004E000D0E022C0E0C0D0C41204CCC41204CCD0D0D0E022C0E0C0D0E5831204E3E5821232
:2005000004E3D0D0D0E022C0E0C0D0C083C082E4936007120475A302050FD082D083D0D066
:20052000D0E022C0E0C0D0120533C4120533D0D0D0E022C0E0C0D0C0F01205D4D2F0C2F1AF
:2005400054F0030353F0C342F01205BBD2F11205BBC2F11205BBD0F0D0D0D0E022C0E0C09B
:20056000D01205731205B4C41205731205B4D0D0D0E022C0E0C0D0C0F01205D4C2F0C2F19B
:2005800054F0030353F0C342F01205BBD2F11205BBC2F11205BBD0F0D0D0D0E022744012F5
:2005A000055D74009312052320E703A380F4748012055D2212040512040522C0E0C0D01253
:2005C00002DC7440120323E5F01203231202FFD0D0D0E022C0E0C0D01202DC7441120323B2
:2005E00012039E1202FFF5F0D0D0D0E022C0F01205D4C2F61205BBD0F022C0F01205D4D26A
:20060000F61205BBD0F022C0F01205D4C2F71205BBD0F022C0F01205D4D2F71205BBD0F032
:200620002208200800C0E0C08F758F04C0B2C0BF75BF0075B2025390FD4390015391FE434A
:20064000910275B2005391FE43910275985075BE9B75BD11D0BFD0B2D08FD0E022F59930BA
:2006600099FDC29922C0E0C0D0540F12075512065D1206BED0D0D0E022C0E0C0D0C0E0C415
:20068000120665D0E0120665D0D0D0E022C0E0C0D0E583120679E582120679D0D0D0E022AB
:2006A000C0E0C0D0C082C083E493600912065D1206BEA380F3D083D082D0D0D0E022C0E08D
:2006C000C0D0109805D0D0D0E022E599B413F61098F380FB3098FDC298E599221206D4125D
:2006E000074812075F400EC4F81206D412074812075F4001482278541206D4547F120748CD
:20070000B40D02F622B40813B85407740712065D80E6189006211206A080DD12073A40EB64
:20072000B87E0280E6F60880E478547954E6B4200508B880F822F70980F7B420004007B4C1
:200740007F005002C322D322B47B005007B461004002942022B40A0040022407243022C3D7
:2007600094304010B40A00400A94074007B41000B34001C322E612075F221207754009C4C3
:20078000F9081207754001492212077A400AF5830812077A4002F58222C08F758F0475D1B6
:2007A0000075CAB075CE0A75CC8075D10675CC01D08F22C08F758F0475D10675CB2075D1E4
:2007C000000000E5CB20E0FB75D102E5CB85CAF0D08F22C08F758F0475D10675CB1075D17D
:2007E000000000E5CB20E0FB75D102E5CB85CAF0D08F22C0E0C0D0C070C071C072C073C0E0
:2008000074C075C076C077C078C079C07AC07BC07C7570007571007572007573007574001D
:20082000757500757600757700757800757900757A00757B00757C20EB13FBEA13FAE91340
:20084000F9E813F8502CEC2574F574ED3575F575EE3576F576EF3577F577E5703578F578C7
:20086000E5713579F579E572357AF57AE573357BF57BC3EC33FCED33FDEE33FEEF33FFE5F9
:200880007033F570E57133F571E57233F572E57333F573D57CA2A874A975AA76AB77AC78EA
:2008A000AD79AE7AAF7BD07CD07BD07AD079D078D077D076D075D074D073D072D071D07032
:2008C000D0D0D0E022C0E0C0D0C070C071C072C073C074C075C0767570007571007572005F
:2008E000757300757400757500757610E913F9E813F85016EA2572F572EB3573F573E570BC
:200900003574F574E5713575F575C3EA33FAEB33FBE57033F570E57133F571D576CEA87259
:20092000A973AA74AB75D076D075D074D073D072D071D070D0D0D0E022C0E0C0D0C070C0F6
:2009400071C072C073C074C075C076C077C078C079C07AC07BC07C75700075710075720017
:20096000757300757400757500757600757700757800757900757A00757B00757C20E833FF
:20098000F8E933F9EA33FAEB33FBE57033F570E57133F571E57233F572E57333F573C3E5B2
:2009A000709CF574E5719DF575E5729EF576E5739FF577400C857470857571857672857719
:2009C00073B3E57833F578E57933F579E57A33F57AE57B33F57BD57CA5AC78AD79AE7AAFDA
:2009E0007BA870A971AA72AB73D07CD07BD07AD079D078D077D076D075D074D073D072D033
:200A000071D070D0D0D0E022C0E0C0D0C070C071C072C073C074C075C07675700075710053
:200A2000757200757300757400757500757610E833F8E933F9E57033F570E57133F571C352
:200A4000E5709AF572E5719BF5734006857270857371B3E57433F574E57533F575D576CF18
:200A6000AA74AB75A870A971D076D075D074D073D072D071D070D0D0D0E022C0E0C0D0E8A7
:200A80002CF8E93DF9EA3EFAEB3FFB74003400FCD0D0D0E022C0E0C0D0E82AF8E93BF974EB
:200AA000003400FAD0D0D0E022C0E0C0D0C3E89CF8E99DF9EA9EFAEB9FFB74009400FCD0CD
:200AC000D0D0E022C0E0C0D0C3E89AF8E99BF974009400FAD0D0D0E022C0E0C0D0C077C0EF
:200AE00078C0797579057B007A0A120A08E8C0E0EAF8EBF9D579EFD0E0FAD0E0C4F579D048
:200B0000E02579F9D0E0C4F579D0E02579F8D079D078D077D0D0D0E022C0D0C0F075F00A3D
:200B200084C425F0D0F0D0D022C0F0C0E0C0D0E8540FC0E0E8C4540F75F00AA4D0F025F014
:200B4000C0E0E954F0C4C0E0E9540F75F064A4A9F0F8D0E075F00AA475F064A428F8E935AC
:200B6000F0F9D0E028F8740039F9D0D0D0E0D0F022C0D0C0F0C070F57053700F54F0C475C0
:200B8000F00AA42570D070D0F0D0D022C083C082C0D0C08FC0B2C0BF758F0475BF0143B7D4
:200BA0000843B70453B6F743B60490F000A3E582458370F943B602E5B620E1FB30E0F5E5FB
:200BC000B7540F44A075BB98F5B753B7FB43B702E5B720E0FB53B7F743B610D0BFD0B2D020
:100BE0008FD0D0D082D08322438F0122538FFE2218
:00000001FF
