:2000000002000375817F12004D751280120B9B75129C120B9B751100120B4E751100120BD9
:200020004E751224120B9B7512B0120B9B90009FE493B4AA03020047F511120B65A30200A3
:20004000307512B2120B9B120BD702004775B200120ACC12005722C0E0C0D07515FF751664
:200060000F751280120B9B75129C120B9B7512B0120B9B751100120B65D515F77515FFD5A1
:2000800016F17512B2120B9B751100120B4E751100120B4E751224120B9BD0E0D0D02200B1
:2000A000000000000000000000000000000000000000000000000000000000000000000040
:2000C000000000000000000000000000000000000000000000000000000000000000000020
:2000E000000000000000000000000000000000000000000000000000000000000000000000
:200100000000000000000000000000000000000000000000000000000000000000000000DF
:200120000000000000000000000000000000000000000000000000000000000000000000BF
:2001400000000000000000000000000000000000000000000000000000000000000000009F
:2001600000000000000000000000000000000000000000000000000000000000000000007F
:2001800000000000000000000000000000000000000000000000000000000000000000005F
:2001A00000000000000000000000000000000000000000000000000000000000000000003F
:2001C00000000000000000000000000000000000000000000000000000000000000000001F
:2001E0000000000000000000000000000000000000000000000000000000000000000000FF
:200200000000000000000000000000000000000000000000000000000000000000000000DE
:200220000000000000000000000000000000000000000000000000000000000000000000BE
:2002400000000000000000000000000000000000000000000000000000000000000000009E
:2002600000000000000000000000000000000000000000000000000000000000000000007E
:2002800000000000000000000000000000000000000000000000000000000000000000005E
:2002A00000000000000000000000000000000000000000000000000000000000000000003E
:2002C00000000000000000000000000000000000000000000000000000000000000000001E
:2002E0000000000000000000000000000000000000000000000000000000000000000000FE
:200300000000000000000000000000000000000000000000000000000000000000000000DD
:200320000000000000000000000000000000000000000000000000000000000000000000BD
:2003400000000000000000000000000000000000000000000000000000000000000000009D
:200360000000000000000000000000000000000000000000000F3C000000001F30000000E3
:20038000013000000000000000000000010000000000000000000000073F3F00001F3C004B
:2003A0000000003F380000001F3E001F3C000000000000000700000000073F2000000000A1
:2003C000073F3938001F3E000000003F380000013E03201F3C000000000000001F000000B6
:2003E00000033F2000000000073F3006000F3C000000003F380000033E00301F3C00000091
:20040000000000033F00000000033F2000000000073F3003000730000000300F2000000722
:200420003E00001F3C000000000000073F00000000033F2000000000073F300120000000E4
:20044000000120000000000F3F00001F3C000000000000073F00000000033F20000000002A
:20046000073F3000301F3C001F3F003F3800000F3F20001F3C000E00073E003F3F3C013F90
:2004800030033F213F200000073F3000101F3C013C1F003F3800000F3F30001F3C003E009F
:2004A0000F0720073F00033C0C033F273F300000073F3000081F3C033C1F203F3800000FC0
:2004C0003F38001F3C0120003E0330073F000F3807033F3C3F380000073F3000081F3C074F
:2004E0003C1F303F3800000F3F3C001F3C0600013E0338073F000F3803033F303F3800001C
:20050000073F3000041F3C0F3C1F383F3800000F3F3C001F3C0E00013E033C073F001F38DF
:2005200001033F203F3C0000073F3000041F3C0F3C1F383F380000073F3E001F3C1F0003EE
:200540003E033C073F003F3800033F201F3C0000073F3000041F3C0F3C1F383F38000007AF
:200560003F3F001F3C3F00073E033E073F003F3800033F201F3C0000073F3000041F3C0F7F
:200580003C1F383F380000033F3F201F3F3F20073E033E073F003F3800033F201F3C0000F3
:2005A000073F3000041F3C0F3C1F383F380000013F3F301F3F3F20073E033E073F013F389D
:2005C00000033F201F3C0000073F3000041F3C0F3C1F303F393F3F003F3F301F3F3F300777
:2005E0003F0F3F073F013F3800033F201F3C0000073F3000041F3C073C1F303F3800000015
:200600001F3F381F3D3F38073F3F3E073F013F3800033F201F3C0000073F30000C1F3C0353
:200620003C1F203F380000001F3F381F3D3F38073E0000073F013F3800033F201F3C00009F
:20064000073F3000081F3C033C3E003F380000000F3F381F3C3F3C073E0000073F003F386F
:2006600000033F201F3C0000073F3000181F3C060F38003F38000000073F3C1F3C1F3C07D1
:200680003E0000073F003F3800033F201F3C0000073F3000301F3C0E0000003F380000001C
:2006A000033F381F3C1F3E033E0006073F023F3800333F201F3C0000073F3000201F3C0F15
:2006C0003F3F003F38000000013F381F3C0F3F033E000E073F021F3801233F203F3C000018
:2006E000073F3003001F3C0F3F3F203F38000008003F381F3C0F3F013E000C073F060F38FC
:2007000003033F203F3C0000073F3006001F3C0F3F3F203F3800000E003F301F3C073F20C0
:200720003E0038033F2C0F3806073F203F3C0000073F3038001F3E073F3F203F380000037D
:20074000203F201F3C073F301F0320013F3803381C073F203F3C0000073F3F20001F3E0352
:200760003F3F203F380000003F3E001F3C033F38073E00003F20013F30073F203F3C00001D
:2007800000000000000000000007000000000000072000000000000000000000000000002B
:2007A000000000000000000000000000000000000000000000000000000000000000000039
:2007C000000000000000000000000000000000000000000000000000000000000000000019
:2007E0000000000000000000000000000000000000000000000000000000000000000000F9
:200800000000000000000000000000000000000000000000000000000000000000000000D8
:200820000000000000000000000000000000000000000000000000000000000000000000B8
:20084000000000000000000000000000000000000000000000000000000000000000000098
:20086000000000000000000000000000000000000000000000000000000000000000000078
:20088000000000000000000000000000000000000000000000000000000000000000000058
:2008A000000000000000000000000000000000000000000000000000000000000000000038
:2008C000000000000000000000000000000000000000000000000000000000000000000018
:2008E0000000000000000000000000000000000000000000000000000000000000000000F8
:200900000000000000000000000000000000000000000000000000000000000000000000D7
:200920000000000000000000000000000000000000000000000000000000000000000000B7
:20094000000000000000000000000000000000000000000000000000000000000000000097
:20096000000000000000000000000000000000000000000000000000000000000000000077
:20098000000000000000000000000000000000000000000000000000000000000000000057
:2009A000000000000000000000000000000000000000000000000000000000000000000037
:2009C000000000000000000000000000000000000000000000000000000000000000000017
:2009E0000000000000000000000000000000000000000000000000000000000000000000F7
:200A00000000000000000000000000000000000000000000000000000000000000000000D6
:200A20000000000000000000000000000000000000000000000000000000000000000000B6
:200A4000000000000000000000000000000000000000000000000000000000000000000096
:200A6000000000000000000000000000000000000000000000000000000000000000000076
:200A800000000000000000000000000000000000000000000000000000000000000000AAAC
:200AA000C0E0C0D0C21075C900D2B3D2B0C2B1E5C8D2B1D2B3F8120BB1F5105403B403ED01
:200AC000F8120BB175C9FFD0D0D0E022120FAD7586FF75B1FFC2B2D2B0D2B1D280C2811294
:200AE0000D8DD281120AA0751280120B9B751100120B4E751100120B4E751242120B9B75B6
:200B00001128120B4E751100120B4E751243120B9B751100120B4E75110A120B4E7512400B
:200B2000120B9B751128120B4E751100120B4E751241120B9B751100120B4E751100120BDF
:200B40004E751224120B9B751290120B9B22C0E0C0D0120AA08511C8C2B300C2B000D2B040
:200B6000D0D0D0E022C0E0C0D0120AA0E5105404B404F68511C8C2B300C2B000D2B0D0D0B5
:200B8000D0E022C0E0C0D0120AA075C900C2B3C2B1000085C811D0D0D0E022C0E0C0D0125F
:200BA0000AA08512C8D2B3C2B000D2B0D0D0D0E022C0E0C0D0740D120FE5E8121001740A01
:200BC000120FE5D0D0D0E022C0E0C0D075A10085A013D0D0D0D022C0E0C0D0E513B5A0033D
:200BE000020BEB85A013A813120BB1D0D0D0E022C0E0C0D0D0D0D0E022C08F758F04C0B25F
:200C000075B20175C8FF75C9FF75B20075C900D0B2D08F22C08F758F04C0B275B20143A0F7
:200C20000F43A10F75B20053A1F0D0B2D08F22C08F758F04C0B275B20075B1FFD0B2D08FAE
:200C400022C08F758F04C0B275B200D287D28375B203D283D28775B20043860853867FD0DC
:200C6000B2D08F22C08F758F04C0B275B200D283D287438680120D65C287120D65C28312B2
:200C80000D65D0B2D08F22C08F758F04C0B275B200438680C287120D65D283120D65D287A7
:200CA000120D6553867FD0B2D08F22C0E0C0F0C08F758F04C0B275B20075F008438680332C
:200CC0009287120D65D283120D65C283D5F0F053867F120D65D283A287120D65C283D0B2FF
:200CE000D08FD0F0D0E022C08F758F04C0B275B200C0F0C0D075F00853867F120D65D28335
:200D0000A28733120D65C283D5F0F0438680C287120D65D283120D65C28353867FD0D0D0FD
:200D2000F0D0B2D08F22C08F758F04C0B275B200C0F0C0D075F00853867F120D65D283A250
:200D40008733120D65C283D5F0F0438680D287120D65D283120D65C28353867FD0D0D0F05F
:200D6000D0B2D08F22C0E0C0D075E01AD5E0FDD0D0D0E022C0E0C0D0C0F075F032120D8D8A
:200D8000D5F0FAD5E0F4D0F0D0D0D0E022C0E0C0D075E064120D65D5E0FAD0D0D0E022C06B
:200DA000E0C0D0C0F0120C4175F0FD120F437410120F3CD5E0FA7430120EFB120F3C74309E
:200DC000120EFB120F3C7430120EFB120F3C7420120EFB120F3C7428120EE5120F3C740FF2
:200DE000120EE5120F3C7401120EE5120F3C7406120EE5120F3CD0F0D0D0D0E022C0E0C04C
:200E0000D0B480005046B42000503CB40C077401120EE5803AB40107740F120EE58030B435
:200E20000207740E120EE58026B40307740C120EE5801CB40D077402120EE58012B40A0FFB
:200E400074C0120EE58008120EAB8003120EE5D0D0D0E022C0E0C0D0540F2430B43A0040F7
:200E6000022407120EABD0D0D0E022C0E0C0D0C4120E54C4120E54D0D0D0E022C0E0C0D0C6
:200E8000E583120E6BE582120E6BD0D0D0E022C0E0C0D0C083C082E4936007120DFDA302A7
:200EA0000E97D082D083D0D0D0E022C0E0C0D0120EBBC4120EBBD0D0D0E022C0E0C0D0C06A
:200EC000F0120F5CD2F0C2F154F0030353F0C342F0120F43D2F1120F43C2F1120F43D0F04C
:200EE000D0D0D0E022C0E0C0D0120EFB120F3CC4120EFB120F3CD0D0D0E022C0E0C0D0C03A
:200F0000F0120F5CC2F0C2F154F0030353F0C342F0120F43D2F1120F43C2F1120F43D0F01B
:200F2000D0D0D0E0227440120EE5740093120EAB20E703A380F47480120EE522120D8D12BA
:200F40000D8D22C0E0C0D0120C647440120CABE5F0120CAB120C87D0D0D0E022C0E0C0D0C1
:200F6000120C647441120CAB120D26120C87F5F0D0D0D0E022C0F0120F5CC2F6120F43D017
:200F8000F022C0F0120F5CD2F6120F43D0F022C0F0120F5CC2F7120F43D0F022C0F0120F07
:200FA0005CD2F7120F43D0F02208200800C0E0C08F758F04C0B2C0BF75BF0075B20253906E
:200FC000FD4390015391FE43910275B2005391FE43910275985075BE9B75BD11D0BFD0B22A
:200FE000D08FD0E022F5993099FDC29922C0E0C0D0540F1210DD120FE5121046D0D0D0E09F
:2010000022C0E0C0D0C0E0C4120FEDD0E0120FEDD0D0D0E022C0E0C0D0E583121001E582BA
:20102000121001D0D0D0E022C0E0C0D0C082C083E4936009120FE5121046A380F3D083D0DF
:2010400082D0D0D0E022C0E0C0D0109805D0D0D0E022E599B413F61098F380FB3098FDC275
:2010600098E5992212105C1210D01210E7400EC4F812105C1210D01210E7400148227854C5
:2010800012105C547F1210D0B40D02F622B40813B854077407120FE580E618900FA91210E7
:2010A0002880DD1210C240EBB87E0280E6F60880E478547954E6B4200508B880F822F709EA
:2010C00080F7B420004007B47F005002C322D322B47B005007B461004002942022B40A00AE
:2010E00040022407243022C394304010B40A00400A94074007B41000B34001C322E61210A7
:20110000E7221210FD4009C4F9081210FD40014922121102400AF583081211024002F58201
:2011200022C08F758F0475D10075CAB075CE0A75CC8075D10675CC01D08F22C08F758F048D
:2011400075D10675CB2075D1000000E5CB20E0FB75D102E5CB85CAF0D08F22C08F758F04E3
:2011600075D10675CB1075D1000000E5CB20E0FB75D102E5CB85CAF0D08F22C0E0C0D0C03A
:2011800070C071C072C073C074C075C076C077C078C079C07AC07BC07C7570007571007511
:2011A0007200757300757400757500757600757700757800757900757A00757B00757C2060
:2011C000EB13FBEA13FAE913F9E813F8502CEC2574F574ED3575F575EE3576F576EF35772D
:2011E000F577E5703578F578E5713579F579E572357AF57AE573357BF57BC3EC33FCED33B7
:20120000FDEE33FEEF33FFE57033F570E57133F571E57233F572E57333F573D57CA2A874C2
:20122000A975AA76AB77AC78AD79AE7AAF7BD07CD07BD07AD079D078D077D076D075D0742A
:20124000D073D072D071D070D0D0D0E022C0E0C0D0C070C071C072C073C074C075C076750C
:201260007000757100757200757300757400757500757610E913F9E813F85016EA2572F5B7
:2012800072EB3573F573E5703574F574E5713575F575C3EA33FAEB33FBE57033F570E571DA
:2012A00033F571D576CEA872A973AA74AB75D076D075D074D073D072D071D070D0D0D0E0E3
:2012C00022C0E0C0D0C070C071C072C073C074C075C076C077C078C079C07AC07BC07C7589
:2012E0007000757100757200757300757400757500757600757700757800757900757A0055
:20130000757B00757C20E833F8E933F9EA33FAEB33FBE57033F570E57133F571E57233F519
:2013200072E57333F573C3E5709CF574E5719DF575E5729EF576E5739FF577400C85747056
:20134000857571857672857773B3E57833F578E57933F579E57A33F57AE57B33F57BD57C42
:20136000A5AC78AD79AE7AAF7BA870A971AA72AB73D07CD07BD07AD079D078D077D076D0F1
:2013800075D074D073D072D071D070D0D0D0E022C0E0C0D0C070C071C072C073C074C075BD
:2013A000C076757000757100757200757300757400757500757610E833F8E933F9E57033DF
:2013C000F570E57133F571C3E5709AF572E5719BF5734006857270857371B3E57433F57489
:2013E000E57533F575D576CFAA74AB75A870A971D076D075D074D073D072D071D070D0D0F7
:20140000D0E022C0E0C0D0E82CF8E93DF9EA3EFAEB3FFB74003400FCD0D0D0E022C0E0C0E2
:20142000D0E82AF8E93BF974003400FAD0D0D0E022C0E0C0D0C3E89CF8E99DF9EA9EFAEB46
:201440009FFB74009400FCD0D0D0E022C0E0C0D0C3E89AF8E99BF974009400FAD0D0D0E040
:2014600022C0E0C0D0C077C078C0797579057B007A0A121390E8C0E0EAF8EBF9D579EFD070
:20148000E0FAD0E0C4F579D0E02579F9D0E0C4F579D0E02579F8D079D078D077D0D0D0E0F9
:2014A00022C0D0C0F075F00A84C425F0D0F0D0D022C0F0C0E0C0D0E8540FC0E0E8C4540FA2
:2014C00075F00AA4D0F025F0C0E0E954F0C4C0E0E9540F75F064A4A9F0F8D0E075F00AA4E6
:2014E00075F064A428F8E935F0F9D0E028F8740039F9D0D0D0E0D0F022C0D0C0F0C070F54B
:201500007053700F54F0C475F00AA42570D070D0F0D0D022C083C082C0D0C08FC0B2C0BFC2
:20152000758F0475BF0143B70843B70453B6F743B60490F000A3E582458370F943B602E5D6
:20154000B620E1FB30E0F5E5B7540F44A075BB98F5B753B7FB43B702E5B720E0FB53B7F7E4
:1815600043B610D0BFD0B2D08FD0D0D082D08322438F0122538FFE229C
:00000001FF
