:2000000075817F12005D75112812014075110012014075122412015D751124120140751283
:20002000C012015D7511241201407512C012015D7511241201407512C012015D751124126C
:2000400001407512C012015D7511241201407512C012015D75129C12015D02005A12008C67
:2000600022C0E0C0D012012E12010A75B00075100075B00E120325E5925403B403EDF51042
:20008000F812017A75B000D0D0D0E0221200EFC291742012030CD290D291120545120061A7
:2000A00075128012015D75110012014075110012014075124212015D751128120140751157
:2000C0000012014075124312015D75110012014075110012014075124012015D75112812EA
:2000E000014075110012014075124112015D22C08F758F04C0B275B2017590FF7591FF751D
:20010000B2007591FFD0B2D08F22C08F758F04C0B275B20075B1FFD0B2D08F22C08F758FBA
:2001200004C0B275B2007593FFD0B2D08F22C08F758F04C0B275B200759300D0B2D08F221D
:20014000C0E0C0D012011C75B002120325851192A81112017A120061D0D0D0E022C0E0C02C
:20016000D012011C75B00A120325851292A81212017A120061D0D0D0E022C0E0C0D0740D11
:2001800012057DE8120599740A12057DD0D0D0E022C08F758F04C0B275B20175C8FF75C944
:2001A000FF75B20075C900D0B2D08F22C08F758F04C0B275B20143A00F43A10F75B2005388
:2001C000A1F0D0B2D08F22C08F758F04C0B275B20075B1FFD0B2D08F22C08F758F04C0B2AA
:2001E00075B200D287D28375B203D283D28775B20043860853867FD0B2D08F22C08F758FAC
:2002000004C0B275B200D283D2874386801202FDC2871202FDC2831202FDD0B2D08F22C0C6
:200220008F758F04C0B275B200438680C2871202FDD2831202FDD2871202FD53867FD0B241
:20024000D08F22C0E0C0F0C08F758F04C0B275B20075F0084386803392871202FDD2831263
:2002600002FDC283D5F0F053867F1202FDD283A2871202FDC283D0B2D08FD0F0D0E022C015
:200280008F758F04C0B275B200C0F0C0D075F00853867F1202FDD283A287331202FDC28311
:2002A000D5F0F0438680C2871202FDD2831202FDC28353867FD0D0D0F0D0B2D08F22C08F31
:2002C000758F04C0B275B200C0F0C0D075F00853867F1202FDD283A287331202FDC283D58B
:2002E000F0F0438680D2871202FDD2831202FDC28353867FD0D0D0F0D0B2D08F22C0E0C0A5
:20030000D075E01AD5E0FDD0D0D0E022C0E0C0D0C0F075F032120325D5F0FAD5E0F4D0F0A1
:20032000D0D0D0E022C0E0C0D075E0641202FDD5E0FAD0D0D0E022C0E0C0D0C0F01201D964
:2003400075F0FD1204DB74101204D4D5E0FA74301204931204D474301204931204D474301B
:200360001204931204D474201204931204D4742812047D1204D4740F12047D1204D4740135
:2003800012047D1204D4740612047D1204D4D0F0D0D0D0E022C0E0C0D0B480005046B420E9
:2003A00000503CB40C07740112047D803AB40107740F12047D8030B40207740E12047D8054
:2003C00026B40307740C12047D801CB40D07740212047D8012B40A0F74C012047D800812F9
:2003E0000443800312047DD0D0D0E022C0E0C0D0540F2430B43A0040022407120443D0D0F3
:20040000D0E022C0E0C0D0C41203ECC41203ECD0D0D0E022C0E0C0D0E583120403E58212B4
:200420000403D0D0D0E022C0E0C0D0C083C082E4936007120395A302042FD082D083D0D0E9
:20044000D0E022C0E0C0D0120453C4120453D0D0D0E022C0E0C0D0C0F01204F4D2F0C2F133
:2004600054F0030353F0C342F01204DBD2F11204DBC2F11204DBD0F0D0D0D0E022C0E0C01F
:20048000D01204931204D4C41204931204D4D0D0D0E022C0E0C0D0C0F01204F4C2F0C2F1E1
:2004A00054F0030353F0C342F01204DBD2F11204DBC2F11204DBD0F0D0D0D0E02274401279
:2004C000047D74009312044320E703A380F4748012047D2212032512032522C0E0C0D01299
:2004E00001FC7440120243E5F012024312021FD0D0D0E022C0E0C0D01201FC7441120243D8
:200500001202BE12021FF5F0D0D0D0E022C0F01204F4C2F61204DBD0F022C0F01204F4D2AE
:20052000F61204DBD0F022C0F01204F4C2F71204DBD0F022C0F01204F4D2F71204DBD0F078
:200540002208200800C0E0C08F758F04C0B2C0BF75BF0075B2025390FD4390015391FE432B
:20056000910275B2005391FE43910275985075BE9B75BD11D0BFD0B2D08FD0E022F599309B
:2005800099FDC29922C0E0C0D0540F12067512057D1205DED0D0D0E022C0E0C0D0C0E0C499
:2005A000120585D0E0120585D0D0D0E022C0E0C0D0E583120599E582120599D0D0D0E02210
:2005C000C0E0C0D0C082C083E493600912057D1205DEA380F3D083D082D0D0D0E022C0E030
:2005E000C0D0109805D0D0D0E022E599B413F61098F380FB3098FDC298E599221205F4121F
:20060000066812067F400EC4F81205F412066812067F4001482278541205F4547F120668D4
:20062000B40D02F622B40813B85407740712057D80E6189005411205C080DD12065A40EBC9
:20064000B87E0280E6F60880E478547954E6B4200508B880F822F70980F7B420004007B4A2
:200660007F005002C322D322B47B005007B461004002942022B40A0040022407243022C3B8
:2006800094304010B40A00400A94074007B41000B34001C322E612067F221206954009C466
:2006A000F9081206954001492212069A400AF5830812069A4002F58222C08F758F0475D13A
:2006C0000075CAB075CE0A75CC8075D10675CC01D08F22C08F758F0475D10675CB2075D1C5
:2006E000000000E5CB20E0FB75D102E5CB85CAF0D08F22C08F758F0475D10675CB1075D15E
:20070000000000E5CB20E0FB75D102E5CB85CAF0D08F22C0E0C0D0C070C071C072C073C0C0
:2007200074C075C076C077C078C079C07AC07BC07C757000757100757200757300757400FE
:20074000757500757600757700757800757900757A00757B00757C20EB13FBEA13FAE91321
:20076000F9E813F8502CEC2574F574ED3575F575EE3576F576EF3577F577E5703578F578A8
:20078000E5713579F579E572357AF57AE573357BF57BC3EC33FCED33FDEE33FEEF33FFE5DA
:2007A0007033F570E57133F571E57233F572E57333F573D57CA2A874A975AA76AB77AC78CB
:2007C000AD79AE7AAF7BD07CD07BD07AD079D078D077D076D075D074D073D072D071D07013
:2007E000D0D0D0E022C0E0C0D0C070C071C072C073C074C075C07675700075710075720040
:20080000757300757400757500757610E913F9E813F85016EA2572F572EB3573F573E5709C
:200820003574F574E5713575F575C3EA33FAEB33FBE57033F570E57133F571D576CEA8723A
:20084000A973AA74AB75D076D075D074D073D072D071D070D0D0D0E022C0E0C0D0C070C0D7
:2008600071C072C073C074C075C076C077C078C079C07AC07BC07C757000757100757200F8
:20088000757300757400757500757600757700757800757900757A00757B00757C20E833E0
:2008A000F8E933F9EA33FAEB33FBE57033F570E57133F571E57233F572E57333F573C3E593
:2008C000709CF574E5719DF575E5729EF576E5739FF577400C8574708575718576728577FA
:2008E00073B3E57833F578E57933F579E57A33F57AE57B33F57BD57CA5AC78AD79AE7AAFBB
:200900007BA870A971AA72AB73D07CD07BD07AD079D078D077D076D075D074D073D072D013
:2009200071D070D0D0D0E022C0E0C0D0C070C071C072C073C074C075C07675700075710034
:20094000757200757300757400757500757610E833F8E933F9E57033F570E57133F571C333
:20096000E5709AF572E5719BF5734006857270857371B3E57433F574E57533F575D576CFF9
:20098000AA74AB75A870A971D076D075D074D073D072D071D070D0D0D0E022C0E0C0D0E888
:2009A0002CF8E93DF9EA3EFAEB3FFB74003400FCD0D0D0E022C0E0C0D0E82AF8E93BF974CC
:2009C000003400FAD0D0D0E022C0E0C0D0C3E89CF8E99DF9EA9EFAEB9FFB74009400FCD0AE
:2009E000D0D0E022C0E0C0D0C3E89AF8E99BF974009400FAD0D0D0E022C0E0C0D0C077C0D0
:200A000078C0797579057B007A0A120928E8C0E0EAF8EBF9D579EFD0E0FAD0E0C4F579D009
:200A2000E02579F9D0E0C4F579D0E02579F8D079D078D077D0D0D0E022C0D0C0F075F00A1E
:200A400084C425F0D0F0D0D022C0F0C0E0C0D0E8540FC0E0E8C4540F75F00AA4D0F025F0F5
:200A6000C0E0E954F0C4C0E0E9540F75F064A4A9F0F8D0E075F00AA475F064A428F8E9358D
:200A8000F0F9D0E028F8740039F9D0D0D0E0D0F022C0D0C0F0C070F57053700F54F0C475A1
:200AA000F00AA42570D070D0F0D0D022C083C082C0D0C08FC0B2C0BF758F0475BF0143B7B5
:200AC0000843B70453B6F743B60490F000A3E582458370F943B602E5B620E1FB30E0F5E5DC
:200AE000B7540F44A075BB98F5B753B7FB43B702E5B720E0FB53B7F743B610D0BFD0B2D001
:100B00008FD0D0D082D08322438F0122538FFE22F8
:00000001FF
